{
  "_format": "hh-sol-artifact-1",
  "contractName": "GovernorContract",
  "sourceName": "contracts/GovernanceContract.sol",
  "abi": [
    {
      "inputs": [
        {
          "internalType": "contract IVotes",
          "name": "_token",
          "type": "address"
        },
        {
          "internalType": "contract TimelockController",
          "name": "_timelock",
          "type": "address"
        },
        {
          "internalType": "uint256",
          "name": "_votingDelay",
          "type": "uint256"
        },
        {
          "internalType": "uint256",
          "name": "_votingPeriod",
          "type": "uint256"
        },
        {
          "internalType": "uint256",
          "name": "_quorumPercentage",
          "type": "uint256"
        }
      ],
      "stateMutability": "nonpayable",
      "type": "constructor"
    },
    {
      "inputs": [],
      "name": "Empty",
      "type": "error"
    },
    {
      "anonymous": false,
      "inputs": [
        {
          "indexed": false,
          "internalType": "uint256",
          "name": "proposalId",
          "type": "uint256"
        }
      ],
      "name": "ProposalCanceled",
      "type": "event"
    },
    {
      "anonymous": false,
      "inputs": [
        {
          "indexed": false,
          "internalType": "uint256",
          "name": "proposalId",
          "type": "uint256"
        },
        {
          "indexed": false,
          "internalType": "address",
          "name": "proposer",
          "type": "address"
        },
        {
          "indexed": false,
          "internalType": "address[]",
          "name": "targets",
          "type": "address[]"
        },
        {
          "indexed": false,
          "internalType": "uint256[]",
          "name": "values",
          "type": "uint256[]"
        },
        {
          "indexed": false,
          "internalType": "string[]",
          "name": "signatures",
          "type": "string[]"
        },
        {
          "indexed": false,
          "internalType": "bytes[]",
          "name": "calldatas",
          "type": "bytes[]"
        },
        {
          "indexed": false,
          "internalType": "uint256",
          "name": "startBlock",
          "type": "uint256"
        },
        {
          "indexed": false,
          "internalType": "uint256",
          "name": "endBlock",
          "type": "uint256"
        },
        {
          "indexed": false,
          "internalType": "string",
          "name": "description",
          "type": "string"
        }
      ],
      "name": "ProposalCreated",
      "type": "event"
    },
    {
      "anonymous": false,
      "inputs": [
        {
          "indexed": false,
          "internalType": "uint256",
          "name": "proposalId",
          "type": "uint256"
        }
      ],
      "name": "ProposalExecuted",
      "type": "event"
    },
    {
      "anonymous": false,
      "inputs": [
        {
          "indexed": false,
          "internalType": "uint256",
          "name": "proposalId",
          "type": "uint256"
        },
        {
          "indexed": false,
          "internalType": "uint256",
          "name": "eta",
          "type": "uint256"
        }
      ],
      "name": "ProposalQueued",
      "type": "event"
    },
    {
      "anonymous": false,
      "inputs": [
        {
          "indexed": false,
          "internalType": "uint256",
          "name": "oldProposalThreshold",
          "type": "uint256"
        },
        {
          "indexed": false,
          "internalType": "uint256",
          "name": "newProposalThreshold",
          "type": "uint256"
        }
      ],
      "name": "ProposalThresholdSet",
      "type": "event"
    },
    {
      "anonymous": false,
      "inputs": [
        {
          "indexed": false,
          "internalType": "uint256",
          "name": "oldQuorumNumerator",
          "type": "uint256"
        },
        {
          "indexed": false,
          "internalType": "uint256",
          "name": "newQuorumNumerator",
          "type": "uint256"
        }
      ],
      "name": "QuorumNumeratorUpdated",
      "type": "event"
    },
    {
      "anonymous": false,
      "inputs": [
        {
          "indexed": false,
          "internalType": "address",
          "name": "oldTimelock",
          "type": "address"
        },
        {
          "indexed": false,
          "internalType": "address",
          "name": "newTimelock",
          "type": "address"
        }
      ],
      "name": "TimelockChange",
      "type": "event"
    },
    {
      "anonymous": false,
      "inputs": [
        {
          "indexed": true,
          "internalType": "address",
          "name": "voter",
          "type": "address"
        },
        {
          "indexed": false,
          "internalType": "uint256",
          "name": "proposalId",
          "type": "uint256"
        },
        {
          "indexed": false,
          "internalType": "uint8",
          "name": "support",
          "type": "uint8"
        },
        {
          "indexed": false,
          "internalType": "uint256",
          "name": "weight",
          "type": "uint256"
        },
        {
          "indexed": false,
          "internalType": "string",
          "name": "reason",
          "type": "string"
        }
      ],
      "name": "VoteCast",
      "type": "event"
    },
    {
      "anonymous": false,
      "inputs": [
        {
          "indexed": true,
          "internalType": "address",
          "name": "voter",
          "type": "address"
        },
        {
          "indexed": false,
          "internalType": "uint256",
          "name": "proposalId",
          "type": "uint256"
        },
        {
          "indexed": false,
          "internalType": "uint8",
          "name": "support",
          "type": "uint8"
        },
        {
          "indexed": false,
          "internalType": "uint256",
          "name": "weight",
          "type": "uint256"
        },
        {
          "indexed": false,
          "internalType": "string",
          "name": "reason",
          "type": "string"
        },
        {
          "indexed": false,
          "internalType": "bytes",
          "name": "params",
          "type": "bytes"
        }
      ],
      "name": "VoteCastWithParams",
      "type": "event"
    },
    {
      "anonymous": false,
      "inputs": [
        {
          "indexed": false,
          "internalType": "uint256",
          "name": "oldVotingDelay",
          "type": "uint256"
        },
        {
          "indexed": false,
          "internalType": "uint256",
          "name": "newVotingDelay",
          "type": "uint256"
        }
      ],
      "name": "VotingDelaySet",
      "type": "event"
    },
    {
      "anonymous": false,
      "inputs": [
        {
          "indexed": false,
          "internalType": "uint256",
          "name": "oldVotingPeriod",
          "type": "uint256"
        },
        {
          "indexed": false,
          "internalType": "uint256",
          "name": "newVotingPeriod",
          "type": "uint256"
        }
      ],
      "name": "VotingPeriodSet",
      "type": "event"
    },
    {
      "inputs": [],
      "name": "BALLOT_TYPEHASH",
      "outputs": [
        {
          "internalType": "bytes32",
          "name": "",
          "type": "bytes32"
        }
      ],
      "stateMutability": "view",
      "type": "function"
    },
    {
      "inputs": [],
      "name": "COUNTING_MODE",
      "outputs": [
        {
          "internalType": "string",
          "name": "",
          "type": "string"
        }
      ],
      "stateMutability": "pure",
      "type": "function"
    },
    {
      "inputs": [],
      "name": "EXTENDED_BALLOT_TYPEHASH",
      "outputs": [
        {
          "internalType": "bytes32",
          "name": "",
          "type": "bytes32"
        }
      ],
      "stateMutability": "view",
      "type": "function"
    },
    {
      "inputs": [
        {
          "internalType": "uint256",
          "name": "proposalId",
          "type": "uint256"
        },
        {
          "internalType": "uint8",
          "name": "support",
          "type": "uint8"
        }
      ],
      "name": "castVote",
      "outputs": [
        {
          "internalType": "uint256",
          "name": "",
          "type": "uint256"
        }
      ],
      "stateMutability": "nonpayable",
      "type": "function"
    },
    {
      "inputs": [
        {
          "internalType": "uint256",
          "name": "proposalId",
          "type": "uint256"
        },
        {
          "internalType": "uint8",
          "name": "support",
          "type": "uint8"
        },
        {
          "internalType": "uint8",
          "name": "v",
          "type": "uint8"
        },
        {
          "internalType": "bytes32",
          "name": "r",
          "type": "bytes32"
        },
        {
          "internalType": "bytes32",
          "name": "s",
          "type": "bytes32"
        }
      ],
      "name": "castVoteBySig",
      "outputs": [
        {
          "internalType": "uint256",
          "name": "",
          "type": "uint256"
        }
      ],
      "stateMutability": "nonpayable",
      "type": "function"
    },
    {
      "inputs": [
        {
          "internalType": "uint256",
          "name": "proposalId",
          "type": "uint256"
        },
        {
          "internalType": "uint8",
          "name": "support",
          "type": "uint8"
        },
        {
          "internalType": "string",
          "name": "reason",
          "type": "string"
        }
      ],
      "name": "castVoteWithReason",
      "outputs": [
        {
          "internalType": "uint256",
          "name": "",
          "type": "uint256"
        }
      ],
      "stateMutability": "nonpayable",
      "type": "function"
    },
    {
      "inputs": [
        {
          "internalType": "uint256",
          "name": "proposalId",
          "type": "uint256"
        },
        {
          "internalType": "uint8",
          "name": "support",
          "type": "uint8"
        },
        {
          "internalType": "string",
          "name": "reason",
          "type": "string"
        },
        {
          "internalType": "bytes",
          "name": "params",
          "type": "bytes"
        }
      ],
      "name": "castVoteWithReasonAndParams",
      "outputs": [
        {
          "internalType": "uint256",
          "name": "",
          "type": "uint256"
        }
      ],
      "stateMutability": "nonpayable",
      "type": "function"
    },
    {
      "inputs": [
        {
          "internalType": "uint256",
          "name": "proposalId",
          "type": "uint256"
        },
        {
          "internalType": "uint8",
          "name": "support",
          "type": "uint8"
        },
        {
          "internalType": "string",
          "name": "reason",
          "type": "string"
        },
        {
          "internalType": "bytes",
          "name": "params",
          "type": "bytes"
        },
        {
          "internalType": "uint8",
          "name": "v",
          "type": "uint8"
        },
        {
          "internalType": "bytes32",
          "name": "r",
          "type": "bytes32"
        },
        {
          "internalType": "bytes32",
          "name": "s",
          "type": "bytes32"
        }
      ],
      "name": "castVoteWithReasonAndParamsBySig",
      "outputs": [
        {
          "internalType": "uint256",
          "name": "",
          "type": "uint256"
        }
      ],
      "stateMutability": "nonpayable",
      "type": "function"
    },
    {
      "inputs": [
        {
          "internalType": "address[]",
          "name": "targets",
          "type": "address[]"
        },
        {
          "internalType": "uint256[]",
          "name": "values",
          "type": "uint256[]"
        },
        {
          "internalType": "bytes[]",
          "name": "calldatas",
          "type": "bytes[]"
        },
        {
          "internalType": "bytes32",
          "name": "descriptionHash",
          "type": "bytes32"
        }
      ],
      "name": "execute",
      "outputs": [
        {
          "internalType": "uint256",
          "name": "",
          "type": "uint256"
        }
      ],
      "stateMutability": "payable",
      "type": "function"
    },
    {
      "inputs": [],
      "name": "getAllProposals",
      "outputs": [
        {
          "components": [
            {
              "internalType": "uint256",
              "name": "proposalId",
              "type": "uint256"
            },
            {
              "internalType": "address",
              "name": "proposer",
              "type": "address"
            },
            {
              "internalType": "address[]",
              "name": "targets",
              "type": "address[]"
            },
            {
              "internalType": "uint256[]",
              "name": "values",
              "type": "uint256[]"
            },
            {
              "internalType": "string[]",
              "name": "signatures",
              "type": "string[]"
            },
            {
              "internalType": "bytes[]",
              "name": "calldatas",
              "type": "bytes[]"
            },
            {
              "internalType": "uint256",
              "name": "startBlock",
              "type": "uint256"
            },
            {
              "internalType": "uint256",
              "name": "endBlock",
              "type": "uint256"
            },
            {
              "internalType": "string",
              "name": "description",
              "type": "string"
            }
          ],
          "internalType": "struct GovernorContract.Proposal[]",
          "name": "allProposals",
          "type": "tuple[]"
        }
      ],
      "stateMutability": "view",
      "type": "function"
    },
    {
      "inputs": [
        {
          "internalType": "address",
          "name": "account",
          "type": "address"
        },
        {
          "internalType": "uint256",
          "name": "blockNumber",
          "type": "uint256"
        }
      ],
      "name": "getVotes",
      "outputs": [
        {
          "internalType": "uint256",
          "name": "",
          "type": "uint256"
        }
      ],
      "stateMutability": "view",
      "type": "function"
    },
    {
      "inputs": [
        {
          "internalType": "address",
          "name": "account",
          "type": "address"
        },
        {
          "internalType": "uint256",
          "name": "blockNumber",
          "type": "uint256"
        },
        {
          "internalType": "bytes",
          "name": "params",
          "type": "bytes"
        }
      ],
      "name": "getVotesWithParams",
      "outputs": [
        {
          "internalType": "uint256",
          "name": "",
          "type": "uint256"
        }
      ],
      "stateMutability": "view",
      "type": "function"
    },
    {
      "inputs": [
        {
          "internalType": "uint256",
          "name": "proposalId",
          "type": "uint256"
        },
        {
          "internalType": "address",
          "name": "account",
          "type": "address"
        }
      ],
      "name": "hasVoted",
      "outputs": [
        {
          "internalType": "bool",
          "name": "",
          "type": "bool"
        }
      ],
      "stateMutability": "view",
      "type": "function"
    },
    {
      "inputs": [
        {
          "internalType": "address[]",
          "name": "targets",
          "type": "address[]"
        },
        {
          "internalType": "uint256[]",
          "name": "values",
          "type": "uint256[]"
        },
        {
          "internalType": "bytes[]",
          "name": "calldatas",
          "type": "bytes[]"
        },
        {
          "internalType": "bytes32",
          "name": "descriptionHash",
          "type": "bytes32"
        }
      ],
      "name": "hashProposal",
      "outputs": [
        {
          "internalType": "uint256",
          "name": "",
          "type": "uint256"
        }
      ],
      "stateMutability": "pure",
      "type": "function"
    },
    {
      "inputs": [],
      "name": "name",
      "outputs": [
        {
          "internalType": "string",
          "name": "",
          "type": "string"
        }
      ],
      "stateMutability": "view",
      "type": "function"
    },
    {
      "inputs": [
        {
          "internalType": "address",
          "name": "",
          "type": "address"
        },
        {
          "internalType": "address",
          "name": "",
          "type": "address"
        },
        {
          "internalType": "uint256[]",
          "name": "",
          "type": "uint256[]"
        },
        {
          "internalType": "uint256[]",
          "name": "",
          "type": "uint256[]"
        },
        {
          "internalType": "bytes",
          "name": "",
          "type": "bytes"
        }
      ],
      "name": "onERC1155BatchReceived",
      "outputs": [
        {
          "internalType": "bytes4",
          "name": "",
          "type": "bytes4"
        }
      ],
      "stateMutability": "nonpayable",
      "type": "function"
    },
    {
      "inputs": [
        {
          "internalType": "address",
          "name": "",
          "type": "address"
        },
        {
          "internalType": "address",
          "name": "",
          "type": "address"
        },
        {
          "internalType": "uint256",
          "name": "",
          "type": "uint256"
        },
        {
          "internalType": "uint256",
          "name": "",
          "type": "uint256"
        },
        {
          "internalType": "bytes",
          "name": "",
          "type": "bytes"
        }
      ],
      "name": "onERC1155Received",
      "outputs": [
        {
          "internalType": "bytes4",
          "name": "",
          "type": "bytes4"
        }
      ],
      "stateMutability": "nonpayable",
      "type": "function"
    },
    {
      "inputs": [
        {
          "internalType": "address",
          "name": "",
          "type": "address"
        },
        {
          "internalType": "address",
          "name": "",
          "type": "address"
        },
        {
          "internalType": "uint256",
          "name": "",
          "type": "uint256"
        },
        {
          "internalType": "bytes",
          "name": "",
          "type": "bytes"
        }
      ],
      "name": "onERC721Received",
      "outputs": [
        {
          "internalType": "bytes4",
          "name": "",
          "type": "bytes4"
        }
      ],
      "stateMutability": "nonpayable",
      "type": "function"
    },
    {
      "inputs": [
        {
          "internalType": "uint256",
          "name": "proposalId",
          "type": "uint256"
        }
      ],
      "name": "proposalDeadline",
      "outputs": [
        {
          "internalType": "uint256",
          "name": "",
          "type": "uint256"
        }
      ],
      "stateMutability": "view",
      "type": "function"
    },
    {
      "inputs": [
        {
          "internalType": "uint256",
          "name": "proposalId",
          "type": "uint256"
        }
      ],
      "name": "proposalEta",
      "outputs": [
        {
          "internalType": "uint256",
          "name": "",
          "type": "uint256"
        }
      ],
      "stateMutability": "view",
      "type": "function"
    },
    {
      "inputs": [],
      "name": "proposalIndex",
      "outputs": [
        {
          "internalType": "uint256",
          "name": "",
          "type": "uint256"
        }
      ],
      "stateMutability": "view",
      "type": "function"
    },
    {
      "inputs": [
        {
          "internalType": "uint256",
          "name": "proposalId",
          "type": "uint256"
        }
      ],
      "name": "proposalSnapshot",
      "outputs": [
        {
          "internalType": "uint256",
          "name": "",
          "type": "uint256"
        }
      ],
      "stateMutability": "view",
      "type": "function"
    },
    {
      "inputs": [],
      "name": "proposalThreshold",
      "outputs": [
        {
          "internalType": "uint256",
          "name": "",
          "type": "uint256"
        }
      ],
      "stateMutability": "view",
      "type": "function"
    },
    {
      "inputs": [
        {
          "internalType": "uint256",
          "name": "proposalId",
          "type": "uint256"
        }
      ],
      "name": "proposalVotes",
      "outputs": [
        {
          "internalType": "uint256",
          "name": "againstVotes",
          "type": "uint256"
        },
        {
          "internalType": "uint256",
          "name": "forVotes",
          "type": "uint256"
        },
        {
          "internalType": "uint256",
          "name": "abstainVotes",
          "type": "uint256"
        }
      ],
      "stateMutability": "view",
      "type": "function"
    },
    {
      "inputs": [
        {
          "internalType": "uint256",
          "name": "",
          "type": "uint256"
        }
      ],
      "name": "proposals",
      "outputs": [
        {
          "internalType": "uint256",
          "name": "proposalId",
          "type": "uint256"
        },
        {
          "internalType": "address",
          "name": "proposer",
          "type": "address"
        },
        {
          "internalType": "uint256",
          "name": "startBlock",
          "type": "uint256"
        },
        {
          "internalType": "uint256",
          "name": "endBlock",
          "type": "uint256"
        },
        {
          "internalType": "string",
          "name": "description",
          "type": "string"
        }
      ],
      "stateMutability": "view",
      "type": "function"
    },
    {
      "inputs": [
        {
          "internalType": "address[]",
          "name": "targets",
          "type": "address[]"
        },
        {
          "internalType": "uint256[]",
          "name": "values",
          "type": "uint256[]"
        },
        {
          "internalType": "bytes[]",
          "name": "calldatas",
          "type": "bytes[]"
        },
        {
          "internalType": "string",
          "name": "description",
          "type": "string"
        }
      ],
      "name": "propose",
      "outputs": [
        {
          "internalType": "uint256",
          "name": "proposalId",
          "type": "uint256"
        }
      ],
      "stateMutability": "nonpayable",
      "type": "function"
    },
    {
      "inputs": [
        {
          "internalType": "address[]",
          "name": "targets",
          "type": "address[]"
        },
        {
          "internalType": "uint256[]",
          "name": "values",
          "type": "uint256[]"
        },
        {
          "internalType": "bytes[]",
          "name": "calldatas",
          "type": "bytes[]"
        },
        {
          "internalType": "bytes32",
          "name": "descriptionHash",
          "type": "bytes32"
        }
      ],
      "name": "queue",
      "outputs": [
        {
          "internalType": "uint256",
          "name": "",
          "type": "uint256"
        }
      ],
      "stateMutability": "nonpayable",
      "type": "function"
    },
    {
      "inputs": [
        {
          "internalType": "uint256",
          "name": "blockNumber",
          "type": "uint256"
        }
      ],
      "name": "quorum",
      "outputs": [
        {
          "internalType": "uint256",
          "name": "",
          "type": "uint256"
        }
      ],
      "stateMutability": "view",
      "type": "function"
    },
    {
      "inputs": [],
      "name": "quorumDenominator",
      "outputs": [
        {
          "internalType": "uint256",
          "name": "",
          "type": "uint256"
        }
      ],
      "stateMutability": "view",
      "type": "function"
    },
    {
      "inputs": [
        {
          "internalType": "uint256",
          "name": "blockNumber",
          "type": "uint256"
        }
      ],
      "name": "quorumNumerator",
      "outputs": [
        {
          "internalType": "uint256",
          "name": "",
          "type": "uint256"
        }
      ],
      "stateMutability": "view",
      "type": "function"
    },
    {
      "inputs": [],
      "name": "quorumNumerator",
      "outputs": [
        {
          "internalType": "uint256",
          "name": "",
          "type": "uint256"
        }
      ],
      "stateMutability": "view",
      "type": "function"
    },
    {
      "inputs": [
        {
          "internalType": "address",
          "name": "target",
          "type": "address"
        },
        {
          "internalType": "uint256",
          "name": "value",
          "type": "uint256"
        },
        {
          "internalType": "bytes",
          "name": "data",
          "type": "bytes"
        }
      ],
      "name": "relay",
      "outputs": [],
      "stateMutability": "nonpayable",
      "type": "function"
    },
    {
      "inputs": [
        {
          "internalType": "uint256",
          "name": "newProposalThreshold",
          "type": "uint256"
        }
      ],
      "name": "setProposalThreshold",
      "outputs": [],
      "stateMutability": "nonpayable",
      "type": "function"
    },
    {
      "inputs": [
        {
          "internalType": "uint256",
          "name": "newVotingDelay",
          "type": "uint256"
        }
      ],
      "name": "setVotingDelay",
      "outputs": [],
      "stateMutability": "nonpayable",
      "type": "function"
    },
    {
      "inputs": [
        {
          "internalType": "uint256",
          "name": "newVotingPeriod",
          "type": "uint256"
        }
      ],
      "name": "setVotingPeriod",
      "outputs": [],
      "stateMutability": "nonpayable",
      "type": "function"
    },
    {
      "inputs": [
        {
          "internalType": "uint256",
          "name": "proposalId",
          "type": "uint256"
        }
      ],
      "name": "state",
      "outputs": [
        {
          "internalType": "enum IGovernor.ProposalState",
          "name": "",
          "type": "uint8"
        }
      ],
      "stateMutability": "view",
      "type": "function"
    },
    {
      "inputs": [
        {
          "internalType": "bytes4",
          "name": "interfaceId",
          "type": "bytes4"
        }
      ],
      "name": "supportsInterface",
      "outputs": [
        {
          "internalType": "bool",
          "name": "",
          "type": "bool"
        }
      ],
      "stateMutability": "view",
      "type": "function"
    },
    {
      "inputs": [],
      "name": "timelock",
      "outputs": [
        {
          "internalType": "address",
          "name": "",
          "type": "address"
        }
      ],
      "stateMutability": "view",
      "type": "function"
    },
    {
      "inputs": [],
      "name": "token",
      "outputs": [
        {
          "internalType": "contract IVotes",
          "name": "",
          "type": "address"
        }
      ],
      "stateMutability": "view",
      "type": "function"
    },
    {
      "inputs": [
        {
          "internalType": "uint256",
          "name": "newQuorumNumerator",
          "type": "uint256"
        }
      ],
      "name": "updateQuorumNumerator",
      "outputs": [],
      "stateMutability": "nonpayable",
      "type": "function"
    },
    {
      "inputs": [
        {
          "internalType": "contract TimelockController",
          "name": "newTimelock",
          "type": "address"
        }
      ],
      "name": "updateTimelock",
      "outputs": [],
      "stateMutability": "nonpayable",
      "type": "function"
    },
    {
      "inputs": [],
      "name": "version",
      "outputs": [
        {
          "internalType": "string",
          "name": "",
          "type": "string"
        }
      ],
      "stateMutability": "view",
      "type": "function"
    },
    {
      "inputs": [],
      "name": "votingDelay",
      "outputs": [
        {
          "internalType": "uint256",
          "name": "",
          "type": "uint256"
        }
      ],
      "stateMutability": "view",
      "type": "function"
    },
    {
      "inputs": [],
      "name": "votingPeriod",
      "outputs": [
        {
          "internalType": "uint256",
          "name": "",
          "type": "uint256"
        }
      ],
      "stateMutability": "view",
      "type": "function"
    },
    {
      "stateMutability": "payable",
      "type": "receive"
    }
  ],
  "bytecode": "0x6101606040523480156200001257600080fd5b506040516200909e3803806200909e833981810160405281019062000038919062000b4d565b838186858560006040518060400160405280601081526020017f476f7665726e6f72436f6e7472616374000000000000000000000000000000008152508062000086620001f360201b60201c565b60008280519060200120905060008280519060200120905060007f8b73c3c69bb8fe3d512ecc4cf759cc79239f7b179b0ffacaa9a75d522b39400f90508260e081815250508161010081815250504660a08181525050620000ef8184846200023060201b60201c565b608081815250503073ffffffffffffffffffffffffffffffffffffffff1660c08173ffffffffffffffffffffffffffffffffffffffff1660601b81525050806101208181525050505050505080600090805190602001906200015392919062000a58565b505062000166836200026c60201b60201c565b6200017782620002b360201b60201c565b62000188816200034060201b60201c565b5050508073ffffffffffffffffffffffffffffffffffffffff166101408173ffffffffffffffffffffffffffffffffffffffff1660601b8152505050620001d5816200038760201b60201c565b50620001e7816200056660201b60201c565b505050505050620010f1565b60606040518060400160405280600181526020017f3100000000000000000000000000000000000000000000000000000000000000815250905090565b600083838346306040516020016200024d95949392919062000ccb565b6040516020818303038152906040528051906020012090509392505050565b7fc565b045403dc03c2eea82b81a0465edad9e2e7fc4d97e11421c209da93d7a9360045482604051620002a192919062000db0565b60405180910390a18060048190555050565b60008111620002f9576040517f08c379a0000000000000000000000000000000000000000000000000000000008152600401620002f09062000d4a565b60405180910390fd5b7f7e3f7f0708a84de9203036abaa450dccc85ad5ff52f78c170f3edb55cf5e8828600554826040516200032e92919062000db0565b60405180910390a18060058190555050565b7fccb45da8d5717e6c4544694297c4ba5cf151d455c9bb0ed4fc7a38411bc05461600654826040516200037592919062000db0565b60405180910390a18060068190555050565b620003976200060760201b60201c565b811115620003dc576040517f08c379a0000000000000000000000000000000000000000000000000000000008152600401620003d39062000d28565b60405180910390fd5b6000620003ee6200061060201b60201c565b9050600081141580156200040a57506000600960000180549050145b156200050a5760096000016040518060400160405280600063ffffffff16815260200162000443846200064860201b620027d41760201c565b7bffffffffffffffffffffffffffffffffffffffffffffffffffffffff168152509080600181540180825580915050600190039060005260206000200160009091909190915060008201518160000160006101000a81548163ffffffff021916908363ffffffff16021790555060208201518160000160046101000a8154817bffffffffffffffffffffffffffffffffffffffffffffffffffffffff02191690837bffffffffffffffffffffffffffffffffffffffffffffffffffffffff16021790555050505b62000525826009620006b660201b6200283f1790919060201c565b50507f0553476bf02ef2726e8ce5ced78d63e26e602e4a2257b1f559418e24b463399781836040516200055a92919062000db0565b60405180910390a15050565b7f08f74ea46ef7894f65eabfb5e6e695de773a000b47c529ab559178069b226401600a60009054906101000a900473ffffffffffffffffffffffffffffffffffffffff1682604051620005bb92919062000c9e565b60405180910390a180600a60006101000a81548173ffffffffffffffffffffffffffffffffffffffff021916908373ffffffffffffffffffffffffffffffffffffffff16021790555050565b60006064905090565b600080600960000180549050146200063f576200063960096200093c60201b62002a8d1760201c565b62000643565b6008545b905090565b60007bffffffffffffffffffffffffffffffffffffffffffffffffffffffff8016821115620006ae576040517f08c379a0000000000000000000000000000000000000000000000000000000008152600401620006a59062000d6c565b60405180910390fd5b819050919050565b6000806000846000018054905090506000620006d8866200093c60201b60201c565b90506000821180156200075857504386600001600184620006fa919062000dee565b8154811062000732577f4e487b7100000000000000000000000000000000000000000000000000000000600052603260045260246000fd5b9060005260206000200160000160009054906101000a900463ffffffff1663ffffffff16145b15620008205762000774856200064860201b620027d41760201c565b8660000160018462000787919062000dee565b81548110620007bf577f4e487b7100000000000000000000000000000000000000000000000000000000600052603260045260246000fd5b9060005260206000200160000160046101000a8154817bffffffffffffffffffffffffffffffffffffffffffffffffffffffff02191690837bffffffffffffffffffffffffffffffffffffffffffffffffffffffff1602179055506200092d565b856000016040518060400160405280620008454362000a0260201b62002b4e1760201c565b63ffffffff16815260200162000866886200064860201b620027d41760201c565b7bffffffffffffffffffffffffffffffffffffffffffffffffffffffff168152509080600181540180825580915050600190039060005260206000200160009091909190915060008201518160000160006101000a81548163ffffffff021916908363ffffffff16021790555060208201518160000160046101000a8154817bffffffffffffffffffffffffffffffffffffffffffffffffffffffff02191690837bffffffffffffffffffffffffffffffffffffffffffffffffffffffff16021790555050505b80859350935050509250929050565b6000808260000180549050905060008114620009d9578260000160018262000965919062000dee565b815481106200099d577f4e487b7100000000000000000000000000000000000000000000000000000000600052603260045260246000fd5b9060005260206000200160000160049054906101000a90047bffffffffffffffffffffffffffffffffffffffffffffffffffffffff16620009dc565b60005b7bffffffffffffffffffffffffffffffffffffffffffffffffffffffff16915050919050565b600063ffffffff801682111562000a50576040517f08c379a000000000000000000000000000000000000000000000000000000000815260040162000a479062000d8e565b60405180910390fd5b819050919050565b82805462000a669062000ead565b90600052602060002090601f01602090048101928262000a8a576000855562000ad6565b82601f1062000aa557805160ff191683800117855562000ad6565b8280016001018555821562000ad6579182015b8281111562000ad557825182559160200191906001019062000ab8565b5b50905062000ae5919062000ae9565b5090565b5b8082111562000b0457600081600090555060010162000aea565b5090565b60008151905062000b1981620010a3565b92915050565b60008151905062000b3081620010bd565b92915050565b60008151905062000b4781620010d7565b92915050565b600080600080600060a0868803121562000b6657600080fd5b600062000b768882890162000b08565b955050602062000b898882890162000b1f565b945050604062000b9c8882890162000b36565b935050606062000baf8882890162000b36565b925050608062000bc28882890162000b36565b9150509295509295909350565b62000bda8162000e29565b82525050565b62000beb8162000e51565b82525050565b600062000c0060438362000ddd565b915062000c0d8262000f41565b606082019050919050565b600062000c2760278362000ddd565b915062000c348262000fb6565b604082019050919050565b600062000c4e60278362000ddd565b915062000c5b8262001005565b604082019050919050565b600062000c7560268362000ddd565b915062000c828262001054565b604082019050919050565b62000c988162000ea3565b82525050565b600060408201905062000cb5600083018562000bcf565b62000cc4602083018462000bcf565b9392505050565b600060a08201905062000ce2600083018862000be0565b62000cf1602083018762000be0565b62000d00604083018662000be0565b62000d0f606083018562000c8d565b62000d1e608083018462000bcf565b9695505050505050565b6000602082019050818103600083015262000d438162000bf1565b9050919050565b6000602082019050818103600083015262000d658162000c18565b9050919050565b6000602082019050818103600083015262000d878162000c3f565b9050919050565b6000602082019050818103600083015262000da98162000c66565b9050919050565b600060408201905062000dc7600083018562000c8d565b62000dd6602083018462000c8d565b9392505050565b600082825260208201905092915050565b600062000dfb8262000ea3565b915062000e088362000ea3565b92508282101562000e1e5762000e1d62000ee3565b5b828203905092915050565b600062000e368262000e83565b9050919050565b600062000e4a8262000e83565b9050919050565b6000819050919050565b600062000e688262000e29565b9050919050565b600062000e7c8262000e3d565b9050919050565b600073ffffffffffffffffffffffffffffffffffffffff82169050919050565b6000819050919050565b6000600282049050600182168062000ec657607f821691505b6020821081141562000edd5762000edc62000f12565b5b50919050565b7f4e487b7100000000000000000000000000000000000000000000000000000000600052601160045260246000fd5b7f4e487b7100000000000000000000000000000000000000000000000000000000600052602260045260246000fd5b7f476f7665726e6f72566f74657351756f72756d4672616374696f6e3a2071756f60008201527f72756d4e756d657261746f72206f7665722071756f72756d44656e6f6d696e6160208201527f746f720000000000000000000000000000000000000000000000000000000000604082015250565b7f476f7665726e6f7253657474696e67733a20766f74696e6720706572696f642060008201527f746f6f206c6f7700000000000000000000000000000000000000000000000000602082015250565b7f53616665436173743a2076616c756520646f65736e27742066697420696e203260008201527f3234206269747300000000000000000000000000000000000000000000000000602082015250565b7f53616665436173743a2076616c756520646f65736e27742066697420696e203360008201527f3220626974730000000000000000000000000000000000000000000000000000602082015250565b620010ae8162000e5b565b8114620010ba57600080fd5b50565b620010c88162000e6f565b8114620010d457600080fd5b50565b620010e28162000ea3565b8114620010ee57600080fd5b50565b60805160a05160c05160601c60e05161010051610120516101405160601c617f3e62001160600039600081816127b201528181613a710152613cf401526000613fc90152600061400b01526000613fea01526000613f1f01526000613f7501526000613f9e0152617f3e6000f3fe60806040526004361061026b5760003560e01c80637b3c71d311610144578063c59057e4116100b6578063ea0217cf1161007a578063ea0217cf14610a83578063eb9019d414610aac578063ece40cc114610ae9578063f23a6e6114610b12578063f8ce560a14610b4f578063fc0c546a14610b8c576102b1565b8063c59057e41461099a578063cceb68f5146109d7578063d33219b414610a02578063dd4e2ba514610a2d578063deaaa7cc14610a58576102b1565b8063a890c91011610108578063a890c91014610866578063ab58fb8e1461088f578063b58131b0146108cc578063bc197c81146108f7578063c01f9e3714610934578063c28bc2fa14610971576102b1565b80637b3c71d3146107595780637d5e81e21461079657806397c3d334146107d35780639a802a6d146107fe578063a7713a701461083b576102b1565b80633932abb1116101dd57806354fd4d50116101a157806354fd4d5014610623578063567813881461064e5780635977e0f21461068b5780635f398a14146106b657806360c4247f146106f357806370b0f66014610730576102b1565b80633932abb1146105025780633bccf4fd1461052d5780633e4f49e61461056a57806343859632146105a7578063544ffc9c146105e4576102b1565b806306fdde031161022f57806306fdde03146103c5578063150b7a02146103f0578063160cbed71461042d5780632656227d1461046a5780632d63f6931461049a5780632fe3e261146104d7576102b1565b8063013cf08b146102b657806301ffc9a7146102f757806302a251a314610334578063034201811461035f57806306f3f9e61461039c576102b1565b366102b1573073ffffffffffffffffffffffffffffffffffffffff1661028f610bb7565b73ffffffffffffffffffffffffffffffffffffffff16146102af57600080fd5b005b600080fd5b3480156102c257600080fd5b506102dd60048036038101906102d89190615a6f565b610bc6565b6040516102ee959493929190616f42565b60405180910390f35b34801561030357600080fd5b5061031e60048036038101906103199190615a1d565b610ca4565b60405161032b91906169ec565b60405180910390f35b34801561034057600080fd5b50610349610cb6565b6040516103569190616e77565b60405180910390f35b34801561036b57600080fd5b5061038660048036038101906103819190615c3d565b610cc5565b6040516103939190616e77565b60405180910390f35b3480156103a857600080fd5b506103c360048036038101906103be9190615a6f565b610daa565b005b3480156103d157600080fd5b506103da610ea6565b6040516103e79190616b95565b60405180910390f35b3480156103fc57600080fd5b5061041760048036038101906104129190615644565b610f38565b6040516104249190616b44565b60405180910390f35b34801561043957600080fd5b50610454600480360381019061044f919061585d565b610f4c565b6040516104619190616e77565b60405180910390f35b610484600480360381019061047f919061585d565b611270565b6040516104919190616e77565b60405180910390f35b3480156104a657600080fd5b506104c160048036038101906104bc9190615a6f565b611455565b6040516104ce9190616e77565b60405180910390f35b3480156104e357600080fd5b506104ec6114c3565b6040516104f99190616a07565b60405180910390f35b34801561050e57600080fd5b506105176114e7565b6040516105249190616e77565b60405180910390f35b34801561053957600080fd5b50610554600480360381019061054f9190615d0f565b6114f6565b6040516105619190616e77565b60405180910390f35b34801561057657600080fd5b50610591600480360381019061058c9190615a6f565b611580565b60405161059e9190616b7a565b60405180910390f35b3480156105b357600080fd5b506105ce60048036038101906105c99190615ac1565b611592565b6040516105db91906169ec565b60405180910390f35b3480156105f057600080fd5b5061060b60048036038101906106069190615a6f565b6115fd565b60405161061a93929190616fc5565b60405180910390f35b34801561062f57600080fd5b50610638611635565b6040516106459190616b95565b60405180910390f35b34801561065a57600080fd5b5061067560048036038101906106709190615afd565b611672565b6040516106829190616e77565b60405180910390f35b34801561069757600080fd5b506106a06116a3565b6040516106ad9190616e77565b60405180910390f35b3480156106c257600080fd5b506106dd60048036038101906106d89190615ba5565b6116a9565b6040516106ea9190616e77565b60405180910390f35b3480156106ff57600080fd5b5061071a60048036038101906107159190615a6f565b611713565b6040516107279190616e77565b60405180910390f35b34801561073c57600080fd5b5061075760048036038101906107529190615a6f565b611886565b005b34801561076557600080fd5b50610780600480360381019061077b9190615b39565b611982565b60405161078d9190616e77565b60405180910390f35b3480156107a257600080fd5b506107bd60048036038101906107b89190615908565b6119ea565b6040516107ca9190616e77565b60405180910390f35b3480156107df57600080fd5b506107e8611c0c565b6040516107f59190616e77565b60405180910390f35b34801561080a57600080fd5b50610825600480360381019061082091906157f6565b611c15565b6040516108329190616e77565b60405180910390f35b34801561084757600080fd5b50610850611c2b565b60405161085d9190616e77565b60405180910390f35b34801561087257600080fd5b5061088d60048036038101906108889190615a46565b611c54565b005b34801561089b57600080fd5b506108b660048036038101906108b19190615a6f565b611d50565b6040516108c39190616e77565b60405180910390f35b3480156108d857600080fd5b506108e1611e2c565b6040516108ee9190616e77565b60405180910390f35b34801561090357600080fd5b5061091e60048036038101906109199190615585565b611e3b565b60405161092b9190616b44565b60405180910390f35b34801561094057600080fd5b5061095b60048036038101906109569190615a6f565b611e50565b6040516109689190616e77565b60405180910390f35b34801561097d57600080fd5b506109986004803603810190610993919061578a565b611ebe565b005b3480156109a657600080fd5b506109c160048036038101906109bc919061585d565b612004565b6040516109ce9190616e77565b60405180910390f35b3480156109e357600080fd5b506109ec612040565b6040516109f991906169ca565b60405180910390f35b348015610a0e57600080fd5b50610a176124ea565b604051610a249190616825565b60405180910390f35b348015610a3957600080fd5b50610a42612514565b604051610a4f9190616b95565b60405180910390f35b348015610a6457600080fd5b50610a6d612551565b604051610a7a9190616a07565b60405180910390f35b348015610a8f57600080fd5b50610aaa6004803603810190610aa59190615a6f565b612575565b005b348015610ab857600080fd5b50610ad36004803603810190610ace919061574e565b612671565b604051610ae09190616e77565b60405180910390f35b348015610af557600080fd5b50610b106004803603810190610b0b9190615a6f565b61268d565b005b348015610b1e57600080fd5b50610b396004803603810190610b3491906156bf565b612789565b604051610b469190616b44565b60405180910390f35b348015610b5b57600080fd5b50610b766004803603810190610b719190615a6f565b61279e565b604051610b839190616e77565b60405180910390f35b348015610b9857600080fd5b50610ba16127b0565b604051610bae9190616b5f565b60405180910390f35b6000610bc1612ba1565b905090565b600d6020528060005260406000206000915090508060000154908060010160009054906101000a900473ffffffffffffffffffffffffffffffffffffffff1690806006015490806007015490806008018054610c219061765c565b80601f0160208091040260200160405190810160405280929190818152602001828054610c4d9061765c565b8015610c9a5780601f10610c6f57610100808354040283529160200191610c9a565b820191906000526020600020905b815481529060010190602001808311610c7d57829003601f168201915b5050505050905085565b6000610caf82612bcb565b9050919050565b6000610cc0612c45565b905090565b600080610d48610d407fb3b3f3b703cd84ce352197dcff232b1b5d3cfb2025ce47cf04742d0651f1af888c8c8c8c604051610d019291906167be565b60405180910390208b80519060200120604051602001610d25959493929190616aac565b60405160208183030381529060405280519060200120612c4f565b868686612c69565b9050610d9b8a828b8b8b8080601f016020809104026020016040519081016040528093929190818152602001838380828437600081840152601f19601f820116905080830192505050505050508a612c94565b91505098975050505050505050565b610db2610bb7565b73ffffffffffffffffffffffffffffffffffffffff16610dd0612e9d565b73ffffffffffffffffffffffffffffffffffffffff1614610e26576040517f08c379a0000000000000000000000000000000000000000000000000000000008152600401610e1d90616bd7565b60405180910390fd5b3073ffffffffffffffffffffffffffffffffffffffff16610e45610bb7565b73ffffffffffffffffffffffffffffffffffffffff1614610e9a576000610e6a612ea5565b604051610e789291906167be565b604051809103902090505b80610e8e6002612eb2565b14610e9857610e83565b505b610ea381612f8e565b50565b606060008054610eb59061765c565b80601f0160208091040260200160405190810160405280929190818152602001828054610ee19061765c565b8015610f2e5780601f10610f0357610100808354040283529160200191610f2e565b820191906000526020600020905b815481529060010190602001808311610f1157829003601f168201915b5050505050905090565b600063150b7a0260e01b9050949350505050565b600080610f5b86868686612004565b905060046007811115610f97577f4e487b7100000000000000000000000000000000000000000000000000000000600052602160045260246000fd5b610fa082611580565b6007811115610fd8577f4e487b7100000000000000000000000000000000000000000000000000000000600052602160045260246000fd5b14611018576040517f08c379a000000000000000000000000000000000000000000000000000000000815260040161100f90616d97565b60405180910390fd5b6000600a60009054906101000a900473ffffffffffffffffffffffffffffffffffffffff1673ffffffffffffffffffffffffffffffffffffffff1663f27a0c926040518163ffffffff1660e01b815260040160206040518083038186803b15801561108257600080fd5b505afa158015611096573d6000803e3d6000fd5b505050506040513d601f19601f820116820180604052508101906110ba9190615a98565b9050600a60009054906101000a900473ffffffffffffffffffffffffffffffffffffffff1673ffffffffffffffffffffffffffffffffffffffff1663b1c5f4278888886000896040518663ffffffff1660e01b81526004016111209594939291906168ec565b60206040518083038186803b15801561113857600080fd5b505afa15801561114c573d6000803e3d6000fd5b505050506040513d601f19601f8201168201806040525081019061117091906159f4565b600b600084815260200190815260200160002081905550600a60009054906101000a900473ffffffffffffffffffffffffffffffffffffffff1673ffffffffffffffffffffffffffffffffffffffff16638f2a0bb0888888600089876040518763ffffffff1660e01b81526004016111ed96959493929190616954565b600060405180830381600087803b15801561120757600080fd5b505af115801561121b573d6000803e3d6000fd5b505050507f9a2e42fd6722813d69113e7d0079d3d940171428df7373df9c7f7617cfda289282824261124d9190617385565b60405161125b929190616f9c565b60405180910390a18192505050949350505050565b60008061127f86868686612004565b9050600061128c82611580565b9050600460078111156112c8577f4e487b7100000000000000000000000000000000000000000000000000000000600052602160045260246000fd5b816007811115611301577f4e487b7100000000000000000000000000000000000000000000000000000000600052602160045260246000fd5b148061137d575060056007811115611342577f4e487b7100000000000000000000000000000000000000000000000000000000600052602160045260246000fd5b81600781111561137b577f4e487b7100000000000000000000000000000000000000000000000000000000600052602160045260246000fd5b145b6113bc576040517f08c379a00000000000000000000000000000000000000000000000000000000081526004016113b390616d97565b60405180910390fd5b600180600084815260200190815260200160002060020160006101000a81548160ff0219169083151502179055507f712ae1383f79ac853f8d882153778e0260ef8f03b504e2866e0593e04d2b291f826040516114199190616e77565b60405180910390a161142e8288888888613142565b61143b8288888888613272565b6114488288888888613286565b8192505050949350505050565b60006114b2600160008481526020019081526020016000206000016040518060200160405290816000820160009054906101000a900467ffffffffffffffff1667ffffffffffffffff1667ffffffffffffffff16815250506132e1565b67ffffffffffffffff169050919050565b7fb3b3f3b703cd84ce352197dcff232b1b5d3cfb2025ce47cf04742d0651f1af8881565b60006114f16132ef565b905090565b60008061155761154f7f150214d74d59b7d1e90c73fc22ef3d991dd0a76b046543d4d80ab92d2a50328f898960405160200161153493929190616a75565b60405160208183030381529060405280519060200120612c4f565b868686612c69565b9050611574878288604051806020016040528060008152506132f9565b91505095945050505050565b600061158b82613319565b9050919050565b60006007600084815260200190815260200160002060030160008373ffffffffffffffffffffffffffffffffffffffff1673ffffffffffffffffffffffffffffffffffffffff16815260200190815260200160002060009054906101000a900460ff16905092915050565b600080600080600760008681526020019081526020016000209050806000015481600101548260020154935093509350509193909250565b60606040518060400160405280600181526020017f3100000000000000000000000000000000000000000000000000000000000000815250905090565b60008061167d612e9d565b905061169a848285604051806020016040528060008152506132f9565b91505092915050565b600c5481565b6000806116b4612e9d565b905061170787828888888080601f016020809104026020016040519081016040528093929190818152602001838380828437600081840152601f19601f8201169050808301925050505050505087612c94565b91505095945050505050565b6000806009600001805490509050600081141561173557600854915050611881565b6000600960000160018361174991906174a4565b81548110611780577f4e487b7100000000000000000000000000000000000000000000000000000000600052603260045260246000fd5b906000526020600020016040518060400160405290816000820160009054906101000a900463ffffffff1663ffffffff1663ffffffff1681526020016000820160049054906101000a90047bffffffffffffffffffffffffffffffffffffffffffffffffffffffff167bffffffffffffffffffffffffffffffffffffffffffffffffffffffff167bffffffffffffffffffffffffffffffffffffffffffffffffffffffff1681525050905083816000015163ffffffff16116118685780602001517bffffffffffffffffffffffffffffffffffffffffffffffffffffffff1692505050611881565b61187c84600961355790919063ffffffff16565b925050505b919050565b61188e610bb7565b73ffffffffffffffffffffffffffffffffffffffff166118ac612e9d565b73ffffffffffffffffffffffffffffffffffffffff1614611902576040517f08c379a00000000000000000000000000000000000000000000000000000000081526004016118f990616bd7565b60405180910390fd5b3073ffffffffffffffffffffffffffffffffffffffff16611921610bb7565b73ffffffffffffffffffffffffffffffffffffffff1614611976576000611946612ea5565b6040516119549291906167be565b604051809103902090505b8061196a6002612eb2565b146119745761195f565b505b61197f816136fb565b50565b60008061198d612e9d565b90506119df86828787878080601f016020809104026020016040519081016040528093929190818152602001838380828437600081840152601f19601f820116905080830192505050505050506132f9565b915050949350505050565b60006119f885858585613740565b9050604051806101200160405280828152602001611a14612e9d565b73ffffffffffffffffffffffffffffffffffffffff168152602001868152602001858152602001865167ffffffffffffffff811115611a7c577f4e487b7100000000000000000000000000000000000000000000000000000000600052604160045260246000fd5b604051908082528060200260200182016040528015611aaf57816020015b6060815260200190600190039081611a9a5790505b508152602001848152602001611ac483611455565b8152602001611ad283611e50565b815260200183815250600d6000600c5481526020019081526020016000206000820151816000015560208201518160010160006101000a81548173ffffffffffffffffffffffffffffffffffffffff021916908373ffffffffffffffffffffffffffffffffffffffff1602179055506040820151816002019080519060200190611b5d929190614d9e565b506060820151816003019080519060200190611b7a929190614e28565b506080820151816004019080519060200190611b97929190614e75565b5060a0820151816005019080519060200190611bb4929190614ed5565b5060c0820151816006015560e08201518160070155610100820151816008019080519060200190611be6929190614f35565b509050506001600c6000828254611bfd9190617385565b92505081905550949350505050565b60006064905090565b6000611c22848484613a6d565b90509392505050565b60008060096000018054905014611c4b57611c466009612a8d565b611c4f565b6008545b905090565b611c5c610bb7565b73ffffffffffffffffffffffffffffffffffffffff16611c7a612e9d565b73ffffffffffffffffffffffffffffffffffffffff1614611cd0576040517f08c379a0000000000000000000000000000000000000000000000000000000008152600401611cc790616bd7565b60405180910390fd5b3073ffffffffffffffffffffffffffffffffffffffff16611cef610bb7565b73ffffffffffffffffffffffffffffffffffffffff1614611d44576000611d14612ea5565b604051611d229291906167be565b604051809103902090505b80611d386002612eb2565b14611d4257611d2d565b505b611d4d81613b23565b50565b600080600a60009054906101000a900473ffffffffffffffffffffffffffffffffffffffff1673ffffffffffffffffffffffffffffffffffffffff1663d45c4435600b6000868152602001908152602001600020546040518263ffffffff1660e01b8152600401611dc19190616a07565b60206040518083038186803b158015611dd957600080fd5b505afa158015611ded573d6000803e3d6000fd5b505050506040513d601f19601f82011682018060405250810190611e119190615a98565b905060018114611e215780611e24565b60005b915050919050565b6000611e36613bc2565b905090565b600063bc197c8160e01b905095945050505050565b6000611ead600160008481526020019081526020016000206001016040518060200160405290816000820160009054906101000a900467ffffffffffffffff1667ffffffffffffffff1667ffffffffffffffff16815250506132e1565b67ffffffffffffffff169050919050565b611ec6610bb7565b73ffffffffffffffffffffffffffffffffffffffff16611ee4612e9d565b73ffffffffffffffffffffffffffffffffffffffff1614611f3a576040517f08c379a0000000000000000000000000000000000000000000000000000000008152600401611f3190616bd7565b60405180910390fd5b3073ffffffffffffffffffffffffffffffffffffffff16611f59610bb7565b73ffffffffffffffffffffffffffffffffffffffff1614611fae576000611f7e612ea5565b604051611f8c9291906167be565b604051809103902090505b80611fa26002612eb2565b14611fac57611f97565b505b611ffd8483838080601f016020809104026020016040519081016040528093929190818152602001838380828437600081840152601f19601f8201169050808301925050505050505085613bcc565b5050505050565b60008484848460405160200161201d9493929190616892565b6040516020818303038152906040528051906020012060001c9050949350505050565b60606000600c5490508067ffffffffffffffff811115612089577f4e487b7100000000000000000000000000000000000000000000000000000000600052604160045260246000fd5b6040519080825280602002602001820160405280156120c257816020015b6120af614fbb565b8152602001906001900390816120a75790505b50915060005b818110156124e557600d600082815260200190815260200160002060405180610120016040529081600082015481526020016001820160009054906101000a900473ffffffffffffffffffffffffffffffffffffffff1673ffffffffffffffffffffffffffffffffffffffff1673ffffffffffffffffffffffffffffffffffffffff168152602001600282018054806020026020016040519081016040528092919081815260200182805480156121d457602002820191906000526020600020905b8160009054906101000a900473ffffffffffffffffffffffffffffffffffffffff1673ffffffffffffffffffffffffffffffffffffffff168152602001906001019080831161218a575b505050505081526020016003820180548060200260200160405190810160405280929190818152602001828054801561222c57602002820191906000526020600020905b815481526020019060010190808311612218575b5050505050815260200160048201805480602002602001604051908101604052809291908181526020016000905b828210156123065783829060005260206000200180546122799061765c565b80601f01602080910402602001604051908101604052809291908181526020018280546122a59061765c565b80156122f25780601f106122c7576101008083540402835291602001916122f2565b820191906000526020600020905b8154815290600101906020018083116122d557829003601f168201915b50505050508152602001906001019061225a565b50505050815260200160058201805480602002602001604051908101604052809291908181526020016000905b828210156123df5783829060005260206000200180546123529061765c565b80601f016020809104026020016040519081016040528092919081815260200182805461237e9061765c565b80156123cb5780601f106123a0576101008083540402835291602001916123cb565b820191906000526020600020905b8154815290600101906020018083116123ae57829003601f168201915b505050505081526020019060010190612333565b505050508152602001600682015481526020016007820154815260200160088201805461240b9061765c565b80601f01602080910402602001604051908101604052809291908181526020018280546124379061765c565b80156124845780601f1061245957610100808354040283529160200191612484565b820191906000526020600020905b81548152906001019060200180831161246757829003601f168201915b5050505050815250508382815181106124c6577f4e487b7100000000000000000000000000000000000000000000000000000000600052603260045260246000fd5b60200260200101819052506001816124de9190617385565b90506120c8565b505090565b6000600a60009054906101000a900473ffffffffffffffffffffffffffffffffffffffff16905090565b60606040518060400160405280602081526020017f737570706f72743d627261766f2671756f72756d3d666f722c6162737461696e815250905090565b7f150214d74d59b7d1e90c73fc22ef3d991dd0a76b046543d4d80ab92d2a50328f81565b61257d610bb7565b73ffffffffffffffffffffffffffffffffffffffff1661259b612e9d565b73ffffffffffffffffffffffffffffffffffffffff16146125f1576040517f08c379a00000000000000000000000000000000000000000000000000000000081526004016125e890616bd7565b60405180910390fd5b3073ffffffffffffffffffffffffffffffffffffffff16612610610bb7565b73ffffffffffffffffffffffffffffffffffffffff1614612665576000612635612ea5565b6040516126439291906167be565b604051809103902090505b806126596002612eb2565b146126635761264e565b505b61266e81613bfb565b50565b60006126858383612680613c83565b613a6d565b905092915050565b612695610bb7565b73ffffffffffffffffffffffffffffffffffffffff166126b3612e9d565b73ffffffffffffffffffffffffffffffffffffffff1614612709576040517f08c379a000000000000000000000000000000000000000000000000000000000815260040161270090616bd7565b60405180910390fd5b3073ffffffffffffffffffffffffffffffffffffffff16612728610bb7565b73ffffffffffffffffffffffffffffffffffffffff161461277d57600061274d612ea5565b60405161275b9291906167be565b604051809103902090505b806127716002612eb2565b1461277b57612766565b505b61278681613c9a565b50565b600063f23a6e6160e01b905095945050505050565b60006127a982613cdf565b9050919050565b7f000000000000000000000000000000000000000000000000000000000000000081565b60007bffffffffffffffffffffffffffffffffffffffffffffffffffffffff8016821115612837576040517f08c379a000000000000000000000000000000000000000000000000000000000815260040161282e90616d77565b60405180910390fd5b819050919050565b600080600084600001805490509050600061285986612a8d565b90506000821180156128d55750438660000160018461287891906174a4565b815481106128af577f4e487b7100000000000000000000000000000000000000000000000000000000600052603260045260246000fd5b9060005260206000200160000160009054906101000a900463ffffffff1663ffffffff16145b1561298b576128e3856127d4565b866000016001846128f491906174a4565b8154811061292b577f4e487b7100000000000000000000000000000000000000000000000000000000600052603260045260246000fd5b9060005260206000200160000160046101000a8154817bffffffffffffffffffffffffffffffffffffffffffffffffffffffff02191690837bffffffffffffffffffffffffffffffffffffffffffffffffffffffff160217905550612a7e565b8560000160405180604001604052806129a343612b4e565b63ffffffff1681526020016129b7886127d4565b7bffffffffffffffffffffffffffffffffffffffffffffffffffffffff168152509080600181540180825580915050600190039060005260206000200160009091909190915060008201518160000160006101000a81548163ffffffff021916908363ffffffff16021790555060208201518160000160046101000a8154817bffffffffffffffffffffffffffffffffffffffffffffffffffffffff02191690837bffffffffffffffffffffffffffffffffffffffffffffffffffffffff16021790555050505b80859350935050509250929050565b6000808260000180549050905060008114612b255782600001600182612ab391906174a4565b81548110612aea577f4e487b7100000000000000000000000000000000000000000000000000000000600052603260045260246000fd5b9060005260206000200160000160049054906101000a90047bffffffffffffffffffffffffffffffffffffffffffffffffffffffff16612b28565b60005b7bffffffffffffffffffffffffffffffffffffffffffffffffffffffff16915050919050565b600063ffffffff8016821115612b99576040517f08c379a0000000000000000000000000000000000000000000000000000000008152600401612b9090616e17565b60405180910390fd5b819050919050565b6000600a60009054906101000a900473ffffffffffffffffffffffffffffffffffffffff16905090565b60007f6e665ced000000000000000000000000000000000000000000000000000000007bffffffffffffffffffffffffffffffffffffffffffffffffffffffff1916827bffffffffffffffffffffffffffffffffffffffffffffffffffffffff19161480612c3e5750612c3d82613db6565b5b9050919050565b6000600554905090565b6000612c62612c5c613f1b565b83614035565b9050919050565b6000806000612c7a87878787614068565b91509150612c8781614175565b8192505050949350505050565b60008060016000888152602001908152602001600020905060016007811115612ce6577f4e487b7100000000000000000000000000000000000000000000000000000000600052602160045260246000fd5b612cef88611580565b6007811115612d27577f4e487b7100000000000000000000000000000000000000000000000000000000600052602160045260246000fd5b14612d67576040517f08c379a0000000000000000000000000000000000000000000000000000000008152600401612d5e90616cd7565b60405180910390fd5b6000612dc687612db6846000016040518060200160405290816000820160009054906101000a900467ffffffffffffffff1667ffffffffffffffff1667ffffffffffffffff16815250506132e1565b67ffffffffffffffff1686613a6d565b9050612dd588888884886144c6565b600084511415612e38578673ffffffffffffffffffffffffffffffffffffffff167fb8e138887d0aa13bab447e82de9d5c1777041ecd21ca36ba824ff1e6c07ddda489888489604051612e2b9493929190616ffc565b60405180910390a2612e8f565b8673ffffffffffffffffffffffffffffffffffffffff167fe2babfbac5889a709b63bb7f598b324e08bc5a4fb9ec647fb3cbc9ec07eb87128988848989604051612e86959493929190617048565b60405180910390a25b809250505095945050505050565b600033905090565b3660008036915091509091565b6000612ebd8261473f565b15612ef4576040517f3db2a12a00000000000000000000000000000000000000000000000000000000815260040160405180910390fd5b60008260000160009054906101000a9004600f0b905082600101600082600f0b600f0b815260200190815260200160002054915082600101600082600f0b600f0b815260200190815260200160002060009055600181018360000160006101000a8154816fffffffffffffffffffffffffffffffff0219169083600f0b6fffffffffffffffffffffffffffffffff16021790555050919050565b612f96611c0c565b811115612fd8576040517f08c379a0000000000000000000000000000000000000000000000000000000008152600401612fcf90616bf7565b60405180910390fd5b6000612fe2611c2b565b905060008114158015612ffd57506000600960000180549050145b156130ef5760096000016040518060400160405280600063ffffffff168152602001613028846127d4565b7bffffffffffffffffffffffffffffffffffffffffffffffffffffffff168152509080600181540180825580915050600190039060005260206000200160009091909190915060008201518160000160006101000a81548163ffffffff021916908363ffffffff16021790555060208201518160000160046101000a8154817bffffffffffffffffffffffffffffffffffffffffffffffffffffffff02191690837bffffffffffffffffffffffffffffffffffffffffffffffffffffffff16021790555050505b61310382600961283f90919063ffffffff16565b50507f0553476bf02ef2726e8ce5ced78d63e26e602e4a2257b1f559418e24b46339978183604051613136929190616f9c565b60405180910390a15050565b3073ffffffffffffffffffffffffffffffffffffffff16613161610bb7565b73ffffffffffffffffffffffffffffffffffffffff161461326b5760005b8451811015613269573073ffffffffffffffffffffffffffffffffffffffff168582815181106131d8577f4e487b7100000000000000000000000000000000000000000000000000000000600052603260045260246000fd5b602002602001015173ffffffffffffffffffffffffffffffffffffffff16141561325857613257838281518110613238577f4e487b7100000000000000000000000000000000000000000000000000000000600052603260045260246000fd5b602002602001015180519060200120600261477490919063ffffffff16565b5b80613262906176bf565b905061317f565b505b5050505050565b61327f85858585856147f0565b5050505050565b3073ffffffffffffffffffffffffffffffffffffffff166132a5610bb7565b73ffffffffffffffffffffffffffffffffffffffff16146132da576132ca600261473f565b6132d9576132d8600261488e565b5b5b5050505050565b600081600001519050919050565b6000600454905090565b600061330f8585858561330a613c83565b612c94565b9050949350505050565b6000806133258361490f565b905060046007811115613361577f4e487b7100000000000000000000000000000000000000000000000000000000600052602160045260246000fd5b81600781111561339a577f4e487b7100000000000000000000000000000000000000000000000000000000600052602160045260246000fd5b146133a85780915050613552565b6000600b60008581526020019081526020016000205490506000801b8114156133d5578192505050613552565b600a60009054906101000a900473ffffffffffffffffffffffffffffffffffffffff1673ffffffffffffffffffffffffffffffffffffffff16632ab0f529826040518263ffffffff1660e01b81526004016134309190616a07565b60206040518083038186803b15801561344857600080fd5b505afa15801561345c573d6000803e3d6000fd5b505050506040513d601f19601f8201168201806040525081019061348091906159cb565b1561349057600792505050613552565b600a60009054906101000a900473ffffffffffffffffffffffffffffffffffffffff1673ffffffffffffffffffffffffffffffffffffffff1663584b153e826040518263ffffffff1660e01b81526004016134eb9190616a07565b60206040518083038186803b15801561350357600080fd5b505afa158015613517573d6000803e3d6000fd5b505050506040513d601f19601f8201168201806040525081019061353b91906159cb565b1561354b57600592505050613552565b6002925050505b919050565b600043821061359b576040517f08c379a000000000000000000000000000000000000000000000000000000000815260040161359290616cf7565b60405180910390fd5b60008360000180549050905060005b818110156136455760006135be8284614a24565b9050848660000182815481106135fd577f4e487b7100000000000000000000000000000000000000000000000000000000600052603260045260246000fd5b9060005260206000200160000160009054906101000a900463ffffffff1663ffffffff16111561362f5780925061363f565b60018161363c9190617385565b91505b506135aa565b600082146136d0578460000160018361365e91906174a4565b81548110613695577f4e487b7100000000000000000000000000000000000000000000000000000000600052603260045260246000fd5b9060005260206000200160000160049054906101000a90047bffffffffffffffffffffffffffffffffffffffffffffffffffffffff166136d3565b60005b7bffffffffffffffffffffffffffffffffffffffffffffffffffffffff169250505092915050565b7fc565b045403dc03c2eea82b81a0465edad9e2e7fc4d97e11421c209da93d7a936004548260405161372e929190616f9c565b60405180910390a18060048190555050565b600061374a611e2c565b613767613755612e9d565b60014361376291906174a4565b612671565b10156137a8576040517f08c379a000000000000000000000000000000000000000000000000000000000815260040161379f90616e57565b60405180910390fd5b60006137bd8686868680519060200120612004565b90508451865114613803576040517f08c379a00000000000000000000000000000000000000000000000000000000081526004016137fa90616c37565b60405180910390fd5b8351865114613847576040517f08c379a000000000000000000000000000000000000000000000000000000000815260040161383e90616c37565b60405180910390fd5b600086511161388b576040517f08c379a000000000000000000000000000000000000000000000000000000000815260040161388290616d17565b60405180910390fd5b60006001600083815260200190815260200160002090506138eb816000016040518060200160405290816000820160009054906101000a900467ffffffffffffffff1667ffffffffffffffff1667ffffffffffffffff1681525050614a4a565b61392a576040517f08c379a000000000000000000000000000000000000000000000000000000000815260040161392190616df7565b60405180910390fd5b600061393c6139376114e7565b614a64565b61394543614a64565b61394f91906173db565b9050600061396361395e610cb6565b614a64565b8261396e91906173db565b90506139868284600001614abb90919063ffffffff16565b61399c8184600101614abb90919063ffffffff16565b7f7d84a6263ae0d98d3329bd7b46bb4e8d6f98cd35a7adb45c274c8b7fd5ebd5e0846139c6612e9d565b8b8b8d5167ffffffffffffffff811115613a09577f4e487b7100000000000000000000000000000000000000000000000000000000600052604160045260246000fd5b604051908082528060200260200182016040528015613a3c57816020015b6060815260200190600190039081613a275790505b508c88888e604051613a5699989796959493929190616e92565b60405180910390a183945050505050949350505050565b60007f000000000000000000000000000000000000000000000000000000000000000073ffffffffffffffffffffffffffffffffffffffff16633a46b1a885856040518363ffffffff1660e01b8152600401613aca929190616869565b60206040518083038186803b158015613ae257600080fd5b505afa158015613af6573d6000803e3d6000fd5b505050506040513d601f19601f82011682018060405250810190613b1a9190615a98565b90509392505050565b7f08f74ea46ef7894f65eabfb5e6e695de773a000b47c529ab559178069b226401600a60009054906101000a900473ffffffffffffffffffffffffffffffffffffffff1682604051613b76929190616840565b60405180910390a180600a60006101000a81548173ffffffffffffffffffffffffffffffffffffffff021916908373ffffffffffffffffffffffffffffffffffffffff16021790555050565b6000600654905090565b6060613bf2848484604051806060016040528060298152602001617ee060299139614aea565b90509392505050565b60008111613c3e576040517f08c379a0000000000000000000000000000000000000000000000000000000008152600401613c3590616c57565b60405180910390fd5b7f7e3f7f0708a84de9203036abaa450dccc85ad5ff52f78c170f3edb55cf5e882860055482604051613c71929190616f9c565b60405180910390a18060058190555050565b606060405180602001604052806000815250905090565b7fccb45da8d5717e6c4544694297c4ba5cf151d455c9bb0ed4fc7a38411bc0546160065482604051613ccd929190616f9c565b60405180910390a18060068190555050565b6000613ce9611c0c565b613cf283611713565b7f000000000000000000000000000000000000000000000000000000000000000073ffffffffffffffffffffffffffffffffffffffff16638e539e8c856040518263ffffffff1660e01b8152600401613d4b9190616e77565b60206040518083038186803b158015613d6357600080fd5b505afa158015613d77573d6000803e3d6000fd5b505050506040513d601f19601f82011682018060405250810190613d9b9190615a98565b613da5919061744a565b613daf9190617419565b9050919050565b6000639a802a6d60e01b630342018160e01b635f398a1460e01b7f79dd796f000000000000000000000000000000000000000000000000000000001818187bffffffffffffffffffffffffffffffffffffffffffffffffffffffff1916827bffffffffffffffffffffffffffffffffffffffffffffffffffffffff19161480613e9c57507f79dd796f000000000000000000000000000000000000000000000000000000007bffffffffffffffffffffffffffffffffffffffffffffffffffffffff1916827bffffffffffffffffffffffffffffffffffffffffffffffffffffffff1916145b80613f0457507f4e2312e0000000000000000000000000000000000000000000000000000000007bffffffffffffffffffffffffffffffffffffffffffffffffffffffff1916827bffffffffffffffffffffffffffffffffffffffffffffffffffffffff1916145b80613f145750613f1382614bfe565b5b9050919050565b60007f000000000000000000000000000000000000000000000000000000000000000073ffffffffffffffffffffffffffffffffffffffff163073ffffffffffffffffffffffffffffffffffffffff16148015613f9757507f000000000000000000000000000000000000000000000000000000000000000046145b15613fc4577f00000000000000000000000000000000000000000000000000000000000000009050614032565b61402f7f00000000000000000000000000000000000000000000000000000000000000007f00000000000000000000000000000000000000000000000000000000000000007f0000000000000000000000000000000000000000000000000000000000000000614c68565b90505b90565b6000828260405160200161404a9291906167ee565b60405160208183030381529060405280519060200120905092915050565b6000807f7fffffffffffffffffffffffffffffff5d576e7357a4501ddfe92f46681b20a08360001c11156140a357600060039150915061416c565b601b8560ff16141580156140bb5750601c8560ff1614155b156140cd57600060049150915061416c565b6000600187878787604051600081526020016040526040516140f29493929190616aff565b6020604051602081039080840390855afa158015614114573d6000803e3d6000fd5b505050602060405103519050600073ffffffffffffffffffffffffffffffffffffffff168173ffffffffffffffffffffffffffffffffffffffff1614156141635760006001925092505061416c565b80600092509250505b94509492505050565b600060048111156141af577f4e487b7100000000000000000000000000000000000000000000000000000000600052602160045260246000fd5b8160048111156141e8577f4e487b7100000000000000000000000000000000000000000000000000000000600052602160045260246000fd5b14156141f3576144c3565b6001600481111561422d577f4e487b7100000000000000000000000000000000000000000000000000000000600052602160045260246000fd5b816004811115614266577f4e487b7100000000000000000000000000000000000000000000000000000000600052602160045260246000fd5b14156142a7576040517f08c379a000000000000000000000000000000000000000000000000000000000815260040161429e90616bb7565b60405180910390fd5b600260048111156142e1577f4e487b7100000000000000000000000000000000000000000000000000000000600052602160045260246000fd5b81600481111561431a577f4e487b7100000000000000000000000000000000000000000000000000000000600052602160045260246000fd5b141561435b576040517f08c379a000000000000000000000000000000000000000000000000000000000815260040161435290616c17565b60405180910390fd5b60036004811115614395577f4e487b7100000000000000000000000000000000000000000000000000000000600052602160045260246000fd5b8160048111156143ce577f4e487b7100000000000000000000000000000000000000000000000000000000600052602160045260246000fd5b141561440f576040517f08c379a000000000000000000000000000000000000000000000000000000000815260040161440690616c77565b60405180910390fd5b600480811115614448577f4e487b7100000000000000000000000000000000000000000000000000000000600052602160045260246000fd5b816004811115614481577f4e487b7100000000000000000000000000000000000000000000000000000000600052602160045260246000fd5b14156144c2576040517f08c379a00000000000000000000000000000000000000000000000000000000081526004016144b990616d37565b60405180910390fd5b5b50565b60006007600087815260200190815260200160002090508060030160008673ffffffffffffffffffffffffffffffffffffffff1673ffffffffffffffffffffffffffffffffffffffff16815260200190815260200160002060009054906101000a900460ff161561456c576040517f08c379a000000000000000000000000000000000000000000000000000000000815260040161456390616c97565b60405180910390fd5b60018160030160008773ffffffffffffffffffffffffffffffffffffffff1673ffffffffffffffffffffffffffffffffffffffff16815260200190815260200160002060006101000a81548160ff02191690831515021790555060006002811115614600577f4e487b7100000000000000000000000000000000000000000000000000000000600052602160045260246000fd5b60ff168460ff16141561462d57828160000160008282546146219190617385565b92505081905550614737565b60016002811115614667577f4e487b7100000000000000000000000000000000000000000000000000000000600052602160045260246000fd5b60ff168460ff16141561469457828160010160008282546146889190617385565b92505081905550614736565b6002808111156146cd577f4e487b7100000000000000000000000000000000000000000000000000000000600052602160045260246000fd5b60ff168460ff1614156146fa57828160020160008282546146ee9190617385565b92505081905550614735565b6040517f08c379a000000000000000000000000000000000000000000000000000000000815260040161472c90616dd7565b60405180910390fd5b5b5b505050505050565b60008160000160009054906101000a9004600f0b600f0b8260000160109054906101000a9004600f0b600f0b13159050919050565b60008260000160109054906101000a9004600f0b90508183600101600083600f0b600f0b815260200190815260200160002081905550600181018360000160106101000a8154816fffffffffffffffffffffffffffffffff0219169083600f0b6fffffffffffffffffffffffffffffffff160217905550505050565b600a60009054906101000a900473ffffffffffffffffffffffffffffffffffffffff1673ffffffffffffffffffffffffffffffffffffffff1663e38335e5348686866000876040518763ffffffff1660e01b81526004016148559594939291906168ec565b6000604051808303818588803b15801561486e57600080fd5b505af1158015614882573d6000803e3d6000fd5b50505050505050505050565b60008160000160006101000a8154816fffffffffffffffffffffffffffffffff0219169083600f0b6fffffffffffffffffffffffffffffffff16021790555060008160000160106101000a8154816fffffffffffffffffffffffffffffffff0219169083600f0b6fffffffffffffffffffffffffffffffff16021790555050565b6000806001600084815260200190815260200160002090508060020160009054906101000a900460ff1615614948576007915050614a1f565b8060020160019054906101000a900460ff1615614969576002915050614a1f565b600061497484611455565b905060008114156149ba576040517f08c379a00000000000000000000000000000000000000000000000000000000081526004016149b190616db7565b60405180910390fd5b4381106149cc57600092505050614a1f565b60006149d785611e50565b90504381106149ec5760019350505050614a1f565b6149f585614ca2565b8015614a065750614a0585614ce9565b5b15614a175760049350505050614a1f565b600393505050505b919050565b60006002828418614a359190617419565b828416614a429190617385565b905092915050565b600080826000015167ffffffffffffffff16149050919050565b600067ffffffffffffffff8016821115614ab3576040517f08c379a0000000000000000000000000000000000000000000000000000000008152600401614aaa90616d57565b60405180910390fd5b819050919050565b808260000160006101000a81548167ffffffffffffffff021916908367ffffffffffffffff1602179055505050565b606082471015614b2f576040517f08c379a0000000000000000000000000000000000000000000000000000000008152600401614b2690616cb7565b60405180910390fd5b614b3885614d14565b614b77576040517f08c379a0000000000000000000000000000000000000000000000000000000008152600401614b6e90616e37565b60405180910390fd5b6000808673ffffffffffffffffffffffffffffffffffffffff168587604051614ba091906167d7565b60006040518083038185875af1925050503d8060008114614bdd576040519150601f19603f3d011682016040523d82523d6000602084013e614be2565b606091505b5091509150614bf2828286614d37565b92505050949350505050565b60007f01ffc9a7000000000000000000000000000000000000000000000000000000007bffffffffffffffffffffffffffffffffffffffffffffffffffffffff1916827bffffffffffffffffffffffffffffffffffffffffffffffffffffffff1916149050919050565b60008383834630604051602001614c83959493929190616a22565b6040516020818303038152906040528051906020012090509392505050565b60008060076000848152602001908152602001600020905080600201548160010154614cce9190617385565b614cdf614cda85611455565b61279e565b1115915050919050565b6000806007600084815260200190815260200160002090508060000154816001015411915050919050565b6000808273ffffffffffffffffffffffffffffffffffffffff163b119050919050565b60608315614d4757829050614d97565b600083511115614d5a5782518084602001fd5b816040517f08c379a0000000000000000000000000000000000000000000000000000000008152600401614d8e9190616b95565b60405180910390fd5b9392505050565b828054828255906000526020600020908101928215614e17579160200282015b82811115614e165782518260006101000a81548173ffffffffffffffffffffffffffffffffffffffff021916908373ffffffffffffffffffffffffffffffffffffffff16021790555091602001919060010190614dbe565b5b509050614e24919061501d565b5090565b828054828255906000526020600020908101928215614e64579160200282015b82811115614e63578251825591602001919060010190614e48565b5b509050614e71919061501d565b5090565b828054828255906000526020600020908101928215614ec4579160200282015b82811115614ec3578251829080519060200190614eb3929190614f35565b5091602001919060010190614e95565b5b509050614ed1919061503a565b5090565b828054828255906000526020600020908101928215614f24579160200282015b82811115614f23578251829080519060200190614f1392919061505e565b5091602001919060010190614ef5565b5b509050614f3191906150e4565b5090565b828054614f419061765c565b90600052602060002090601f016020900481019282614f635760008555614faa565b82601f10614f7c57805160ff1916838001178555614faa565b82800160010185558215614faa579182015b82811115614fa9578251825591602001919060010190614f8e565b5b509050614fb7919061501d565b5090565b60405180610120016040528060008152602001600073ffffffffffffffffffffffffffffffffffffffff168152602001606081526020016060815260200160608152602001606081526020016000815260200160008152602001606081525090565b5b8082111561503657600081600090555060010161501e565b5090565b5b8082111561505a57600081816150519190615108565b5060010161503b565b5090565b82805461506a9061765c565b90600052602060002090601f01602090048101928261508c57600085556150d3565b82601f106150a557805160ff19168380011785556150d3565b828001600101855582156150d3579182015b828111156150d25782518255916020019190600101906150b7565b5b5090506150e0919061501d565b5090565b5b8082111561510457600081816150fb9190615148565b506001016150e5565b5090565b5080546151149061765c565b6000825580601f106151265750615145565b601f016020900490600052602060002090810190615144919061501d565b5b50565b5080546151549061765c565b6000825580601f106151665750615185565b601f016020900490600052602060002090810190615184919061501d565b5b50565b600061519b615196846170ce565b6170a9565b905080838252602082019050828560208602820111156151ba57600080fd5b60005b858110156151ea57816151d08882615362565b8452602084019350602083019250506001810190506151bd565b5050509392505050565b6000615207615202846170fa565b6170a9565b9050808382526020820190508285602086028201111561522657600080fd5b60005b8581101561527057813567ffffffffffffffff81111561524857600080fd5b8086016152558982615493565b85526020850194506020840193505050600181019050615229565b5050509392505050565b600061528d61528884617126565b6170a9565b905080838252602082019050828560208602820111156152ac57600080fd5b60005b858110156152dc57816152c28882615546565b8452602084019350602083019250506001810190506152af565b5050509392505050565b60006152f96152f484617152565b6170a9565b90508281526020810184848401111561531157600080fd5b61531c84828561761a565b509392505050565b600061533761533284617183565b6170a9565b90508281526020810184848401111561534f57600080fd5b61535a84828561761a565b509392505050565b60008135905061537181617e3e565b92915050565b600082601f83011261538857600080fd5b8135615398848260208601615188565b91505092915050565b600082601f8301126153b257600080fd5b81356153c28482602086016151f4565b91505092915050565b600082601f8301126153dc57600080fd5b81356153ec84826020860161527a565b91505092915050565b60008151905061540481617e55565b92915050565b60008135905061541981617e6c565b92915050565b60008151905061542e81617e6c565b92915050565b60008135905061544381617e83565b92915050565b60008083601f84011261545b57600080fd5b8235905067ffffffffffffffff81111561547457600080fd5b60208301915083600182028301111561548c57600080fd5b9250929050565b600082601f8301126154a457600080fd5b81356154b48482602086016152e6565b91505092915050565b6000813590506154cc81617e9a565b92915050565b60008083601f8401126154e457600080fd5b8235905067ffffffffffffffff8111156154fd57600080fd5b60208301915083600182028301111561551557600080fd5b9250929050565b600082601f83011261552d57600080fd5b813561553d848260208601615324565b91505092915050565b60008135905061555581617eb1565b92915050565b60008151905061556a81617eb1565b92915050565b60008135905061557f81617ec8565b92915050565b600080600080600060a0868803121561559d57600080fd5b60006155ab88828901615362565b95505060206155bc88828901615362565b945050604086013567ffffffffffffffff8111156155d957600080fd5b6155e5888289016153cb565b935050606086013567ffffffffffffffff81111561560257600080fd5b61560e888289016153cb565b925050608086013567ffffffffffffffff81111561562b57600080fd5b61563788828901615493565b9150509295509295909350565b6000806000806080858703121561565a57600080fd5b600061566887828801615362565b945050602061567987828801615362565b935050604061568a87828801615546565b925050606085013567ffffffffffffffff8111156156a757600080fd5b6156b387828801615493565b91505092959194509250565b600080600080600060a086880312156156d757600080fd5b60006156e588828901615362565b95505060206156f688828901615362565b945050604061570788828901615546565b935050606061571888828901615546565b925050608086013567ffffffffffffffff81111561573557600080fd5b61574188828901615493565b9150509295509295909350565b6000806040838503121561576157600080fd5b600061576f85828601615362565b925050602061578085828601615546565b9150509250929050565b600080600080606085870312156157a057600080fd5b60006157ae87828801615362565b94505060206157bf87828801615546565b935050604085013567ffffffffffffffff8111156157dc57600080fd5b6157e887828801615449565b925092505092959194509250565b60008060006060848603121561580b57600080fd5b600061581986828701615362565b935050602061582a86828701615546565b925050604084013567ffffffffffffffff81111561584757600080fd5b61585386828701615493565b9150509250925092565b6000806000806080858703121561587357600080fd5b600085013567ffffffffffffffff81111561588d57600080fd5b61589987828801615377565b945050602085013567ffffffffffffffff8111156158b657600080fd5b6158c2878288016153cb565b935050604085013567ffffffffffffffff8111156158df57600080fd5b6158eb878288016153a1565b92505060606158fc8782880161540a565b91505092959194509250565b6000806000806080858703121561591e57600080fd5b600085013567ffffffffffffffff81111561593857600080fd5b61594487828801615377565b945050602085013567ffffffffffffffff81111561596157600080fd5b61596d878288016153cb565b935050604085013567ffffffffffffffff81111561598a57600080fd5b615996878288016153a1565b925050606085013567ffffffffffffffff8111156159b357600080fd5b6159bf8782880161551c565b91505092959194509250565b6000602082840312156159dd57600080fd5b60006159eb848285016153f5565b91505092915050565b600060208284031215615a0657600080fd5b6000615a148482850161541f565b91505092915050565b600060208284031215615a2f57600080fd5b6000615a3d84828501615434565b91505092915050565b600060208284031215615a5857600080fd5b6000615a66848285016154bd565b91505092915050565b600060208284031215615a8157600080fd5b6000615a8f84828501615546565b91505092915050565b600060208284031215615aaa57600080fd5b6000615ab88482850161555b565b91505092915050565b60008060408385031215615ad457600080fd5b6000615ae285828601615546565b9250506020615af385828601615362565b9150509250929050565b60008060408385031215615b1057600080fd5b6000615b1e85828601615546565b9250506020615b2f85828601615570565b9150509250929050565b60008060008060608587031215615b4f57600080fd5b6000615b5d87828801615546565b9450506020615b6e87828801615570565b935050604085013567ffffffffffffffff811115615b8b57600080fd5b615b97878288016154d2565b925092505092959194509250565b600080600080600060808688031215615bbd57600080fd5b6000615bcb88828901615546565b9550506020615bdc88828901615570565b945050604086013567ffffffffffffffff811115615bf957600080fd5b615c05888289016154d2565b9350935050606086013567ffffffffffffffff811115615c2457600080fd5b615c3088828901615493565b9150509295509295909350565b60008060008060008060008060e0898b031215615c5957600080fd5b6000615c678b828c01615546565b9850506020615c788b828c01615570565b975050604089013567ffffffffffffffff811115615c9557600080fd5b615ca18b828c016154d2565b9650965050606089013567ffffffffffffffff811115615cc057600080fd5b615ccc8b828c01615493565b9450506080615cdd8b828c01615570565b93505060a0615cee8b828c0161540a565b92505060c0615cff8b828c0161540a565b9150509295985092959890939650565b600080600080600060a08688031215615d2757600080fd5b6000615d3588828901615546565b9550506020615d4688828901615570565b9450506040615d5788828901615570565b9350506060615d688882890161540a565b9250506080615d798882890161540a565b9150509295509295909350565b6000615d928383615df2565b60208301905092915050565b6000615daa838361623a565b905092915050565b6000615dbe838361630a565b905092915050565b6000615dd283836166a1565b905092915050565b6000615de68383616782565b60208301905092915050565b615dfb816174d8565b82525050565b615e0a816174d8565b82525050565b6000615e1b82617204565b615e258185617292565b9350615e30836171b4565b8060005b83811015615e61578151615e488882615d86565b9750615e5383617251565b925050600181019050615e34565b5085935050505092915050565b6000615e7982617204565b615e8381856172a3565b9350615e8e836171b4565b8060005b83811015615ebf578151615ea68882615d86565b9750615eb183617251565b925050600181019050615e92565b5085935050505092915050565b6000615ed78261720f565b615ee181856172b4565b935083602082028501615ef3856171c4565b8060005b85811015615f2f5784840389528151615f108582615d9e565b9450615f1b8361725e565b925060208a01995050600181019050615ef7565b50829750879550505050505092915050565b6000615f4c8261720f565b615f5681856172c5565b935083602082028501615f68856171c4565b8060005b85811015615fa45784840389528151615f858582615d9e565b9450615f908361725e565b925060208a01995050600181019050615f6c565b50829750879550505050505092915050565b6000615fc18261721a565b615fcb81856172d6565b935083602082028501615fdd856171d4565b8060005b858110156160195784840389528151615ffa8582615db2565b94506160058361726b565b925060208a01995050600181019050615fe1565b50829750879550505050505092915050565b60006160368261721a565b61604081856172e7565b935083602082028501616052856171d4565b8060005b8581101561608e578484038952815161606f8582615db2565b945061607a8361726b565b925060208a01995050600181019050616056565b50829750879550505050505092915050565b60006160ab82617225565b6160b581856172f8565b9350836020820285016160c7856171e4565b8060005b8581101561610357848403895281516160e48582615dc6565b94506160ef83617278565b925060208a019950506001810190506160cb565b50829750879550505050505092915050565b600061612082617230565b61612a8185617309565b9350616135836171f4565b8060005b8381101561616657815161614d8882615dda565b975061615883617285565b925050600181019050616139565b5085935050505092915050565b600061617e82617230565b616188818561731a565b9350616193836171f4565b8060005b838110156161c45781516161ab8882615dda565b97506161b683617285565b925050600181019050616197565b5085935050505092915050565b6161da816174fc565b82525050565b6161e981617508565b82525050565b6162006161fb82617508565b617708565b82525050565b61620f81617512565b82525050565b6000616221838561734d565b935061622e83858461761a565b82840190509392505050565b60006162458261723b565b61624f818561732b565b935061625f818560208601617629565b616268816177fd565b840191505092915050565b600061627e8261723b565b616288818561733c565b9350616298818560208601617629565b6162a1816177fd565b840191505092915050565b60006162b78261723b565b6162c1818561734d565b93506162d1818560208601617629565b80840191505092915050565b6162e6816175b8565b82525050565b6162f5816175dc565b82525050565b616304816175ee565b82525050565b600061631582617246565b61631f8185617358565b935061632f818560208601617629565b616338816177fd565b840191505092915050565b600061634e82617246565b6163588185617369565b9350616368818560208601617629565b616371816177fd565b840191505092915050565b6000616389601883617369565b91506163948261781b565b602082019050919050565b60006163ac601883617369565b91506163b782617844565b602082019050919050565b60006163cf604383617369565b91506163da8261786d565b606082019050919050565b60006163f2601f83617369565b91506163fd826178e2565b602082019050919050565b600061641560028361737a565b91506164208261790b565b600282019050919050565b6000616438602183617369565b915061644382617934565b604082019050919050565b600061645b602783617369565b915061646682617983565b604082019050919050565b600061647e602283617369565b9150616489826179d2565b604082019050919050565b60006164a1602783617369565b91506164ac82617a21565b604082019050919050565b60006164c4602683617369565b91506164cf82617a70565b604082019050919050565b60006164e7602383617369565b91506164f282617abf565b604082019050919050565b600061650a602083617369565b915061651582617b0e565b602082019050919050565b600061652d601883617369565b915061653882617b37565b602082019050919050565b6000616550602283617369565b915061655b82617b60565b604082019050919050565b6000616573602683617369565b915061657e82617baf565b604082019050919050565b6000616596602783617369565b91506165a182617bfe565b604082019050919050565b60006165b9602183617369565b91506165c482617c4d565b604082019050919050565b60006165dc601d83617369565b91506165e782617c9c565b602082019050919050565b60006165ff603583617369565b915061660a82617cc5565b604082019050919050565b6000616622602183617369565b915061662d82617d14565b604082019050919050565b6000616645602683617369565b915061665082617d63565b604082019050919050565b6000616668601d83617369565b915061667382617db2565b602082019050919050565b600061668b603183617369565b915061669682617ddb565b604082019050919050565b6000610120830160008301516166ba6000860182616782565b5060208301516166cd6020860182615df2565b50604083015184820360408601526166e58282615e10565b915050606083015184820360608601526166ff8282616115565b915050608083015184820360808601526167198282615fb6565b91505060a083015184820360a08601526167338282615ecc565b91505060c083015161674860c0860182616782565b5060e083015161675b60e0860182616782565b50610100830151848203610100860152616775828261630a565b9150508091505092915050565b61678b8161758d565b82525050565b61679a8161758d565b82525050565b6167a981617608565b82525050565b6167b8816175ab565b82525050565b60006167cb828486616215565b91508190509392505050565b60006167e382846162ac565b915081905092915050565b60006167f982616408565b915061680582856161ef565b60208201915061681582846161ef565b6020820191508190509392505050565b600060208201905061683a6000830184615e01565b92915050565b60006040820190506168556000830185615e01565b6168626020830184615e01565b9392505050565b600060408201905061687e6000830185615e01565b61688b6020830184616791565b9392505050565b600060808201905081810360008301526168ac8187615e6e565b905081810360208301526168c08186616173565b905081810360408301526168d48185615f41565b90506168e360608301846161e0565b95945050505050565b600060a08201905081810360008301526169068188615e6e565b9050818103602083015261691a8187616173565b9050818103604083015261692e8186615f41565b905061693d60608301856162fb565b61694a60808301846161e0565b9695505050505050565b600060c082019050818103600083015261696e8189615e6e565b905081810360208301526169828188616173565b905081810360408301526169968187615f41565b90506169a560608301866162fb565b6169b260808301856161e0565b6169bf60a0830184616791565b979650505050505050565b600060208201905081810360008301526169e481846160a0565b905092915050565b6000602082019050616a0160008301846161d1565b92915050565b6000602082019050616a1c60008301846161e0565b92915050565b600060a082019050616a3760008301886161e0565b616a4460208301876161e0565b616a5160408301866161e0565b616a5e6060830185616791565b616a6b6080830184615e01565b9695505050505050565b6000606082019050616a8a60008301866161e0565b616a976020830185616791565b616aa460408301846167af565b949350505050565b600060a082019050616ac160008301886161e0565b616ace6020830187616791565b616adb60408301866167af565b616ae860608301856161e0565b616af560808301846161e0565b9695505050505050565b6000608082019050616b1460008301876161e0565b616b2160208301866167af565b616b2e60408301856161e0565b616b3b60608301846161e0565b95945050505050565b6000602082019050616b596000830184616206565b92915050565b6000602082019050616b7460008301846162dd565b92915050565b6000602082019050616b8f60008301846162ec565b92915050565b60006020820190508181036000830152616baf8184616343565b905092915050565b60006020820190508181036000830152616bd08161637c565b9050919050565b60006020820190508181036000830152616bf08161639f565b9050919050565b60006020820190508181036000830152616c10816163c2565b9050919050565b60006020820190508181036000830152616c30816163e5565b9050919050565b60006020820190508181036000830152616c508161642b565b9050919050565b60006020820190508181036000830152616c708161644e565b9050919050565b60006020820190508181036000830152616c9081616471565b9050919050565b60006020820190508181036000830152616cb081616494565b9050919050565b60006020820190508181036000830152616cd0816164b7565b9050919050565b60006020820190508181036000830152616cf0816164da565b9050919050565b60006020820190508181036000830152616d10816164fd565b9050919050565b60006020820190508181036000830152616d3081616520565b9050919050565b60006020820190508181036000830152616d5081616543565b9050919050565b60006020820190508181036000830152616d7081616566565b9050919050565b60006020820190508181036000830152616d9081616589565b9050919050565b60006020820190508181036000830152616db0816165ac565b9050919050565b60006020820190508181036000830152616dd0816165cf565b9050919050565b60006020820190508181036000830152616df0816165f2565b9050919050565b60006020820190508181036000830152616e1081616615565b9050919050565b60006020820190508181036000830152616e3081616638565b9050919050565b60006020820190508181036000830152616e508161665b565b9050919050565b60006020820190508181036000830152616e708161667e565b9050919050565b6000602082019050616e8c6000830184616791565b92915050565b600061012082019050616ea8600083018c616791565b616eb5602083018b615e01565b8181036040830152616ec7818a615e6e565b90508181036060830152616edb8189616173565b90508181036080830152616eef818861602b565b905081810360a0830152616f038187615f41565b9050616f1260c08301866167a0565b616f1f60e08301856167a0565b818103610100830152616f328184616343565b90509a9950505050505050505050565b600060a082019050616f576000830188616791565b616f646020830187615e01565b616f716040830186616791565b616f7e6060830185616791565b8181036080830152616f908184616343565b90509695505050505050565b6000604082019050616fb16000830185616791565b616fbe6020830184616791565b9392505050565b6000606082019050616fda6000830186616791565b616fe76020830185616791565b616ff46040830184616791565b949350505050565b60006080820190506170116000830187616791565b61701e60208301866167af565b61702b6040830185616791565b818103606083015261703d8184616343565b905095945050505050565b600060a08201905061705d6000830188616791565b61706a60208301876167af565b6170776040830186616791565b81810360608301526170898185616343565b9050818103608083015261709d8184616273565b90509695505050505050565b60006170b36170c4565b90506170bf828261768e565b919050565b6000604051905090565b600067ffffffffffffffff8211156170e9576170e86177ce565b5b602082029050602081019050919050565b600067ffffffffffffffff821115617115576171146177ce565b5b602082029050602081019050919050565b600067ffffffffffffffff821115617141576171406177ce565b5b602082029050602081019050919050565b600067ffffffffffffffff82111561716d5761716c6177ce565b5b617176826177fd565b9050602081019050919050565b600067ffffffffffffffff82111561719e5761719d6177ce565b5b6171a7826177fd565b9050602081019050919050565b6000819050602082019050919050565b6000819050602082019050919050565b6000819050602082019050919050565b6000819050602082019050919050565b6000819050602082019050919050565b600081519050919050565b600081519050919050565b600081519050919050565b600081519050919050565b600081519050919050565b600081519050919050565b600081519050919050565b6000602082019050919050565b6000602082019050919050565b6000602082019050919050565b6000602082019050919050565b6000602082019050919050565b600082825260208201905092915050565b600082825260208201905092915050565b600082825260208201905092915050565b600082825260208201905092915050565b600082825260208201905092915050565b600082825260208201905092915050565b600082825260208201905092915050565b600082825260208201905092915050565b600082825260208201905092915050565b600082825260208201905092915050565b600082825260208201905092915050565b600081905092915050565b600082825260208201905092915050565b600082825260208201905092915050565b600081905092915050565b60006173908261758d565b915061739b8361758d565b9250827fffffffffffffffffffffffffffffffffffffffffffffffffffffffffffffffff038211156173d0576173cf617712565b5b828201905092915050565b60006173e682617597565b91506173f183617597565b92508267ffffffffffffffff0382111561740e5761740d617712565b5b828201905092915050565b60006174248261758d565b915061742f8361758d565b92508261743f5761743e617741565b5b828204905092915050565b60006174558261758d565b91506174608361758d565b9250817fffffffffffffffffffffffffffffffffffffffffffffffffffffffffffffffff048311821515161561749957617498617712565b5b828202905092915050565b60006174af8261758d565b91506174ba8361758d565b9250828210156174cd576174cc617712565b5b828203905092915050565b60006174e38261756d565b9050919050565b60006174f58261756d565b9050919050565b60008115159050919050565b6000819050919050565b60007fffffffff0000000000000000000000000000000000000000000000000000000082169050919050565b6000617549826174ea565b9050919050565b600081905061755e82617e2a565b919050565b6000819050919050565b600073ffffffffffffffffffffffffffffffffffffffff82169050919050565b6000819050919050565b600067ffffffffffffffff82169050919050565b600060ff82169050919050565b60006175c3826175ca565b9050919050565b60006175d58261756d565b9050919050565b60006175e782617550565b9050919050565b60006176016175fc83617563565b61780e565b9050919050565b600061761382617597565b9050919050565b82818337600083830152505050565b60005b8381101561764757808201518184015260208101905061762c565b83811115617656576000848401525b50505050565b6000600282049050600182168061767457607f821691505b602082108114156176885761768761779f565b5b50919050565b617697826177fd565b810181811067ffffffffffffffff821117156176b6576176b56177ce565b5b80604052505050565b60006176ca8261758d565b91507fffffffffffffffffffffffffffffffffffffffffffffffffffffffffffffffff8214156176fd576176fc617712565b5b600182019050919050565b6000819050919050565b7f4e487b7100000000000000000000000000000000000000000000000000000000600052601160045260246000fd5b7f4e487b7100000000000000000000000000000000000000000000000000000000600052601260045260246000fd5b7f4e487b7100000000000000000000000000000000000000000000000000000000600052602160045260246000fd5b7f4e487b7100000000000000000000000000000000000000000000000000000000600052602260045260246000fd5b7f4e487b7100000000000000000000000000000000000000000000000000000000600052604160045260246000fd5b6000601f19601f8301169050919050565b60008160001b9050919050565b7f45434453413a20696e76616c6964207369676e61747572650000000000000000600082015250565b7f476f7665726e6f723a206f6e6c79476f7665726e616e63650000000000000000600082015250565b7f476f7665726e6f72566f74657351756f72756d4672616374696f6e3a2071756f60008201527f72756d4e756d657261746f72206f7665722071756f72756d44656e6f6d696e6160208201527f746f720000000000000000000000000000000000000000000000000000000000604082015250565b7f45434453413a20696e76616c6964207369676e6174757265206c656e67746800600082015250565b7f1901000000000000000000000000000000000000000000000000000000000000600082015250565b7f476f7665726e6f723a20696e76616c69642070726f706f73616c206c656e677460008201527f6800000000000000000000000000000000000000000000000000000000000000602082015250565b7f476f7665726e6f7253657474696e67733a20766f74696e6720706572696f642060008201527f746f6f206c6f7700000000000000000000000000000000000000000000000000602082015250565b7f45434453413a20696e76616c6964207369676e6174757265202773272076616c60008201527f7565000000000000000000000000000000000000000000000000000000000000602082015250565b7f476f7665726e6f72566f74696e6753696d706c653a20766f746520616c72656160008201527f6479206361737400000000000000000000000000000000000000000000000000602082015250565b7f416464726573733a20696e73756666696369656e742062616c616e636520666f60008201527f722063616c6c0000000000000000000000000000000000000000000000000000602082015250565b7f476f7665726e6f723a20766f7465206e6f742063757272656e746c792061637460008201527f6976650000000000000000000000000000000000000000000000000000000000602082015250565b7f436865636b706f696e74733a20626c6f636b206e6f7420796574206d696e6564600082015250565b7f476f7665726e6f723a20656d7074792070726f706f73616c0000000000000000600082015250565b7f45434453413a20696e76616c6964207369676e6174757265202776272076616c60008201527f7565000000000000000000000000000000000000000000000000000000000000602082015250565b7f53616665436173743a2076616c756520646f65736e27742066697420696e203660008201527f3420626974730000000000000000000000000000000000000000000000000000602082015250565b7f53616665436173743a2076616c756520646f65736e27742066697420696e203260008201527f3234206269747300000000000000000000000000000000000000000000000000602082015250565b7f476f7665726e6f723a2070726f706f73616c206e6f742073756363657373667560008201527f6c00000000000000000000000000000000000000000000000000000000000000602082015250565b7f476f7665726e6f723a20756e6b6e6f776e2070726f706f73616c206964000000600082015250565b7f476f7665726e6f72566f74696e6753696d706c653a20696e76616c696420766160008201527f6c756520666f7220656e756d20566f7465547970650000000000000000000000602082015250565b7f476f7665726e6f723a2070726f706f73616c20616c726561647920657869737460008201527f7300000000000000000000000000000000000000000000000000000000000000602082015250565b7f53616665436173743a2076616c756520646f65736e27742066697420696e203360008201527f3220626974730000000000000000000000000000000000000000000000000000602082015250565b7f416464726573733a2063616c6c20746f206e6f6e2d636f6e7472616374000000600082015250565b7f476f7665726e6f723a2070726f706f73657220766f7465732062656c6f77207060008201527f726f706f73616c207468726573686f6c64000000000000000000000000000000602082015250565b60088110617e3b57617e3a617770565b5b50565b617e47816174d8565b8114617e5257600080fd5b50565b617e5e816174fc565b8114617e6957600080fd5b50565b617e7581617508565b8114617e8057600080fd5b50565b617e8c81617512565b8114617e9757600080fd5b50565b617ea38161753e565b8114617eae57600080fd5b50565b617eba8161758d565b8114617ec557600080fd5b50565b617ed1816175ab565b8114617edc57600080fd5b5056fe416464726573733a206c6f772d6c6576656c2063616c6c20776974682076616c7565206661696c6564a26469706673582212203c0917db1b5db91c172404f0a4b185d6fdd3785c5f93d5b639120128b487ab1964736f6c63430008040033",
  "linkReferences": {},
  "deployedLinkReferences": {}
}