{
  "_format": "hh-sol-artifact-1",
  "contractName": "Conserve",
  "sourceName": "contracts/Conserve.sol",
  "abi": [
    {
      "inputs": [
        {
          "internalType": "address",
          "name": "_token",
          "type": "address"
        },
        {
          "internalType": "address",
          "name": "_governanceContract",
          "type": "address"
        }
      ],
      "stateMutability": "nonpayable",
      "type": "constructor"
    },
    {
      "inputs": [
        {
          "internalType": "address",
          "name": "_ngoID",
          "type": "address"
        }
      ],
      "name": "addNGO",
      "outputs": [],
      "stateMutability": "nonpayable",
      "type": "function"
    },
    {
      "inputs": [],
      "name": "afterProposal",
      "outputs": [],
      "stateMutability": "nonpayable",
      "type": "function"
    },
    {
      "inputs": [
        {
          "internalType": "address",
          "name": "_ngoID",
          "type": "address"
        },
        {
          "internalType": "uint32",
          "name": "_amount",
          "type": "uint32"
        }
      ],
      "name": "donate",
      "outputs": [],
      "stateMutability": "nonpayable",
      "type": "function"
    },
    {
      "inputs": [
        {
          "internalType": "address",
          "name": "_ngoID",
          "type": "address"
        }
      ],
      "name": "getNGO",
      "outputs": [
        {
          "internalType": "address",
          "name": "",
          "type": "address"
        },
        {
          "internalType": "uint32",
          "name": "",
          "type": "uint32"
        }
      ],
      "stateMutability": "view",
      "type": "function"
    },
    {
      "inputs": [
        {
          "internalType": "uint256",
          "name": "",
          "type": "uint256"
        }
      ],
      "name": "ngoArray",
      "outputs": [
        {
          "internalType": "address",
          "name": "ngoID",
          "type": "address"
        },
        {
          "internalType": "uint32",
          "name": "amountOfTokens",
          "type": "uint32"
        }
      ],
      "stateMutability": "view",
      "type": "function"
    },
    {
      "inputs": [],
      "name": "returnAllNGOs",
      "outputs": [
        {
          "components": [
            {
              "internalType": "address",
              "name": "ngoID",
              "type": "address"
            },
            {
              "internalType": "uint32",
              "name": "amountOfTokens",
              "type": "uint32"
            }
          ],
          "internalType": "struct Conserve.ngo[]",
          "name": "",
          "type": "tuple[]"
        }
      ],
      "stateMutability": "view",
      "type": "function"
    }
  ],
  "bytecode": "0x608060405234801561001057600080fd5b50604051610d33380380610d33833981810160405281019061003291906100cf565b816000806101000a81548173ffffffffffffffffffffffffffffffffffffffff021916908373ffffffffffffffffffffffffffffffffffffffff16021790555080600160006101000a81548173ffffffffffffffffffffffffffffffffffffffff021916908373ffffffffffffffffffffffffffffffffffffffff1602179055505050610154565b6000815190506100c98161013d565b92915050565b600080604083850312156100e257600080fd5b60006100f0858286016100ba565b9250506020610101858286016100ba565b9150509250929050565b60006101168261011d565b9050919050565b600073ffffffffffffffffffffffffffffffffffffffff82169050919050565b6101468161010b565b811461015157600080fd5b50565b610bd0806101636000396000f3fe608060405234801561001057600080fd5b50600436106100625760003560e01c8063121bea5814610067578063412b5f8b146100985780635371e9cf146100b457806358f65eb3146100d25780636de1587e146100dc5780639c79afb3146100f8575b600080fd5b610081600480360381019061007c91906107c0565b610129565b60405161008f92919061099e565b60405180910390f35b6100b260048036038101906100ad91906107e9565b6102c2565b005b6100bc6104dc565b6040516100c991906109c7565b60405180910390f35b6100da6105b3565b005b6100f660048036038101906100f191906107c0565b610640565b005b610112600480360381019061010d919061084e565b61070c565b60405161012092919061099e565b60405180910390f35b60008060005b6002805490508110156102b4578373ffffffffffffffffffffffffffffffffffffffff166002828154811061018d577f4e487b7100000000000000000000000000000000000000000000000000000000600052603260045260246000fd5b9060005260206000200160000160009054906101000a900473ffffffffffffffffffffffffffffffffffffffff1673ffffffffffffffffffffffffffffffffffffffff1614156102a15760028181548110610211577f4e487b7100000000000000000000000000000000000000000000000000000000600052603260045260246000fd5b9060005260206000200160000160009054906101000a900473ffffffffffffffffffffffffffffffffffffffff1660028281548110610279577f4e487b7100000000000000000000000000000000000000000000000000000000600052603260045260246000fd5b9060005260206000200160000160149054906101000a900463ffffffff1692509250506102bd565b80806102ac90610ac6565b91505061012f565b50826000915091505b915091565b60008054906101000a900473ffffffffffffffffffffffffffffffffffffffff1673ffffffffffffffffffffffffffffffffffffffff166323b872dd33600160009054906101000a900473ffffffffffffffffffffffffffffffffffffffff16846040518463ffffffff1660e01b815260040161034193929190610967565b602060405180830381600087803b15801561035b57600080fd5b505af115801561036f573d6000803e3d6000fd5b505050506040513d601f19601f820116820180604052508101906103939190610825565b5060005b6002805490508110156104d7578273ffffffffffffffffffffffffffffffffffffffff16600282815481106103f5577f4e487b7100000000000000000000000000000000000000000000000000000000600052603260045260246000fd5b9060005260206000200160000160009054906101000a900473ffffffffffffffffffffffffffffffffffffffff1673ffffffffffffffffffffffffffffffffffffffff1614156104c457816002828154811061047a577f4e487b7100000000000000000000000000000000000000000000000000000000600052603260045260246000fd5b9060005260206000200160000160148282829054906101000a900463ffffffff166104a59190610a22565b92506101000a81548163ffffffff021916908363ffffffff1602179055505b80806104cf90610ac6565b915050610397565b505050565b60606002805480602002602001604051908101604052809291908181526020016000905b828210156105aa578382906000526020600020016040518060400160405290816000820160009054906101000a900473ffffffffffffffffffffffffffffffffffffffff1673ffffffffffffffffffffffffffffffffffffffff1673ffffffffffffffffffffffffffffffffffffffff1681526020016000820160149054906101000a900463ffffffff1663ffffffff1663ffffffff168152505081526020019060010190610500565b50505050905090565b60005b60028054905081101561063d576000600282815481106105ff577f4e487b7100000000000000000000000000000000000000000000000000000000600052603260045260246000fd5b9060005260206000200160000160146101000a81548163ffffffff021916908363ffffffff160217905550808061063590610ac6565b9150506105b6565b50565b600260405180604001604052808373ffffffffffffffffffffffffffffffffffffffff168152602001600063ffffffff168152509080600181540180825580915050600190039060005260206000200160009091909190915060008201518160000160006101000a81548173ffffffffffffffffffffffffffffffffffffffff021916908373ffffffffffffffffffffffffffffffffffffffff16021790555060208201518160000160146101000a81548163ffffffff021916908363ffffffff160217905550505050565b6002818154811061071c57600080fd5b906000526020600020016000915090508060000160009054906101000a900473ffffffffffffffffffffffffffffffffffffffff16908060000160149054906101000a900463ffffffff16905082565b60008135905061077b81610b3e565b92915050565b60008151905061079081610b55565b92915050565b6000813590506107a581610b6c565b92915050565b6000813590506107ba81610b83565b92915050565b6000602082840312156107d257600080fd5b60006107e08482850161076c565b91505092915050565b600080604083850312156107fc57600080fd5b600061080a8582860161076c565b925050602061081b858286016107ab565b9150509250929050565b60006020828403121561083757600080fd5b600061084584828501610781565b91505092915050565b60006020828403121561086057600080fd5b600061086e84828501610796565b91505092915050565b6000610883838361090b565b60408301905092915050565b61089881610a5c565b82525050565b6108a781610a5c565b82525050565b60006108b8826109f9565b6108c28185610a11565b93506108cd836109e9565b8060005b838110156108fe5781516108e58882610877565b97506108f083610a04565b9250506001810190506108d1565b5085935050505092915050565b604082016000820151610921600085018261088f565b5060208201516109346020850182610949565b50505050565b61094381610ab4565b82525050565b61095281610aa4565b82525050565b61096181610aa4565b82525050565b600060608201905061097c600083018661089e565b610989602083018561089e565b610996604083018461093a565b949350505050565b60006040820190506109b3600083018561089e565b6109c06020830184610958565b9392505050565b600060208201905081810360008301526109e181846108ad565b905092915050565b6000819050602082019050919050565b600081519050919050565b6000602082019050919050565b600082825260208201905092915050565b6000610a2d82610aa4565b9150610a3883610aa4565b92508263ffffffff03821115610a5157610a50610b0f565b5b828201905092915050565b6000610a6782610a7a565b9050919050565b60008115159050919050565b600073ffffffffffffffffffffffffffffffffffffffff82169050919050565b6000819050919050565b600063ffffffff82169050919050565b6000610abf82610aa4565b9050919050565b6000610ad182610a9a565b91507fffffffffffffffffffffffffffffffffffffffffffffffffffffffffffffffff821415610b0457610b03610b0f565b5b600182019050919050565b7f4e487b7100000000000000000000000000000000000000000000000000000000600052601160045260246000fd5b610b4781610a5c565b8114610b5257600080fd5b50565b610b5e81610a6e565b8114610b6957600080fd5b50565b610b7581610a9a565b8114610b8057600080fd5b50565b610b8c81610aa4565b8114610b9757600080fd5b5056fea2646970667358221220e6162cb69c38e288df379710cc21b32bb0852baa5ebce9e3dbc5197af228a25664736f6c63430008040033",
  "linkReferences": {},
  "deployedLinkReferences": {}
}