{
  "_format": "hh-sol-artifact-1",
  "contractName": "MembershipNFT",
  "sourceName": "contracts/MembershipNFT.sol",
  "abi": [
    {
      "inputs": [
        {
          "internalType": "string",
          "name": "_uri",
          "type": "string"
        }
      ],
      "stateMutability": "nonpayable",
      "type": "constructor"
    },
    {
      "anonymous": false,
      "inputs": [
        {
          "indexed": true,
          "internalType": "address",
          "name": "account",
          "type": "address"
        },
        {
          "indexed": true,
          "internalType": "address",
          "name": "operator",
          "type": "address"
        },
        {
          "indexed": false,
          "internalType": "bool",
          "name": "approved",
          "type": "bool"
        }
      ],
      "name": "ApprovalForAll",
      "type": "event"
    },
    {
      "anonymous": false,
      "inputs": [
        {
          "indexed": true,
          "internalType": "address",
          "name": "previousOwner",
          "type": "address"
        },
        {
          "indexed": true,
          "internalType": "address",
          "name": "newOwner",
          "type": "address"
        }
      ],
      "name": "OwnershipTransferred",
      "type": "event"
    },
    {
      "anonymous": false,
      "inputs": [
        {
          "indexed": true,
          "internalType": "address",
          "name": "operator",
          "type": "address"
        },
        {
          "indexed": true,
          "internalType": "address",
          "name": "from",
          "type": "address"
        },
        {
          "indexed": true,
          "internalType": "address",
          "name": "to",
          "type": "address"
        },
        {
          "indexed": false,
          "internalType": "uint256[]",
          "name": "ids",
          "type": "uint256[]"
        },
        {
          "indexed": false,
          "internalType": "uint256[]",
          "name": "values",
          "type": "uint256[]"
        }
      ],
      "name": "TransferBatch",
      "type": "event"
    },
    {
      "anonymous": false,
      "inputs": [
        {
          "indexed": true,
          "internalType": "address",
          "name": "operator",
          "type": "address"
        },
        {
          "indexed": true,
          "internalType": "address",
          "name": "from",
          "type": "address"
        },
        {
          "indexed": true,
          "internalType": "address",
          "name": "to",
          "type": "address"
        },
        {
          "indexed": false,
          "internalType": "uint256",
          "name": "id",
          "type": "uint256"
        },
        {
          "indexed": false,
          "internalType": "uint256",
          "name": "value",
          "type": "uint256"
        }
      ],
      "name": "TransferSingle",
      "type": "event"
    },
    {
      "anonymous": false,
      "inputs": [
        {
          "indexed": false,
          "internalType": "string",
          "name": "value",
          "type": "string"
        },
        {
          "indexed": true,
          "internalType": "uint256",
          "name": "id",
          "type": "uint256"
        }
      ],
      "name": "URI",
      "type": "event"
    },
    {
      "inputs": [
        {
          "internalType": "address",
          "name": "_address",
          "type": "address"
        }
      ],
      "name": "Mint",
      "outputs": [],
      "stateMutability": "nonpayable",
      "type": "function"
    },
    {
      "inputs": [
        {
          "internalType": "address[]",
          "name": "_list",
          "type": "address[]"
        }
      ],
      "name": "airdrop",
      "outputs": [],
      "stateMutability": "nonpayable",
      "type": "function"
    },
    {
      "inputs": [
        {
          "internalType": "address",
          "name": "account",
          "type": "address"
        },
        {
          "internalType": "uint256",
          "name": "id",
          "type": "uint256"
        }
      ],
      "name": "balanceOf",
      "outputs": [
        {
          "internalType": "uint256",
          "name": "",
          "type": "uint256"
        }
      ],
      "stateMutability": "view",
      "type": "function"
    },
    {
      "inputs": [
        {
          "internalType": "address[]",
          "name": "accounts",
          "type": "address[]"
        },
        {
          "internalType": "uint256[]",
          "name": "ids",
          "type": "uint256[]"
        }
      ],
      "name": "balanceOfBatch",
      "outputs": [
        {
          "internalType": "uint256[]",
          "name": "",
          "type": "uint256[]"
        }
      ],
      "stateMutability": "view",
      "type": "function"
    },
    {
      "inputs": [
        {
          "internalType": "uint256",
          "name": "id",
          "type": "uint256"
        }
      ],
      "name": "exists",
      "outputs": [
        {
          "internalType": "bool",
          "name": "",
          "type": "bool"
        }
      ],
      "stateMutability": "view",
      "type": "function"
    },
    {
      "inputs": [
        {
          "internalType": "address",
          "name": "account",
          "type": "address"
        },
        {
          "internalType": "address",
          "name": "operator",
          "type": "address"
        }
      ],
      "name": "isApprovedForAll",
      "outputs": [
        {
          "internalType": "bool",
          "name": "",
          "type": "bool"
        }
      ],
      "stateMutability": "view",
      "type": "function"
    },
    {
      "inputs": [],
      "name": "maxTotalSupply",
      "outputs": [
        {
          "internalType": "uint256",
          "name": "",
          "type": "uint256"
        }
      ],
      "stateMutability": "view",
      "type": "function"
    },
    {
      "inputs": [],
      "name": "owner",
      "outputs": [
        {
          "internalType": "address",
          "name": "",
          "type": "address"
        }
      ],
      "stateMutability": "view",
      "type": "function"
    },
    {
      "inputs": [],
      "name": "renounceOwnership",
      "outputs": [],
      "stateMutability": "nonpayable",
      "type": "function"
    },
    {
      "inputs": [
        {
          "internalType": "address",
          "name": "from",
          "type": "address"
        },
        {
          "internalType": "address",
          "name": "to",
          "type": "address"
        },
        {
          "internalType": "uint256[]",
          "name": "ids",
          "type": "uint256[]"
        },
        {
          "internalType": "uint256[]",
          "name": "amounts",
          "type": "uint256[]"
        },
        {
          "internalType": "bytes",
          "name": "data",
          "type": "bytes"
        }
      ],
      "name": "safeBatchTransferFrom",
      "outputs": [],
      "stateMutability": "nonpayable",
      "type": "function"
    },
    {
      "inputs": [
        {
          "internalType": "address",
          "name": "from",
          "type": "address"
        },
        {
          "internalType": "address",
          "name": "to",
          "type": "address"
        },
        {
          "internalType": "uint256",
          "name": "id",
          "type": "uint256"
        },
        {
          "internalType": "uint256",
          "name": "amount",
          "type": "uint256"
        },
        {
          "internalType": "bytes",
          "name": "data",
          "type": "bytes"
        }
      ],
      "name": "safeTransferFrom",
      "outputs": [],
      "stateMutability": "nonpayable",
      "type": "function"
    },
    {
      "inputs": [
        {
          "internalType": "address",
          "name": "operator",
          "type": "address"
        },
        {
          "internalType": "bool",
          "name": "approved",
          "type": "bool"
        }
      ],
      "name": "setApprovalForAll",
      "outputs": [],
      "stateMutability": "nonpayable",
      "type": "function"
    },
    {
      "inputs": [
        {
          "internalType": "string",
          "name": "newuri",
          "type": "string"
        }
      ],
      "name": "setURI",
      "outputs": [],
      "stateMutability": "nonpayable",
      "type": "function"
    },
    {
      "inputs": [
        {
          "internalType": "bytes4",
          "name": "interfaceId",
          "type": "bytes4"
        }
      ],
      "name": "supportsInterface",
      "outputs": [
        {
          "internalType": "bool",
          "name": "",
          "type": "bool"
        }
      ],
      "stateMutability": "view",
      "type": "function"
    },
    {
      "inputs": [],
      "name": "totalSupply",
      "outputs": [
        {
          "internalType": "uint256",
          "name": "",
          "type": "uint256"
        }
      ],
      "stateMutability": "view",
      "type": "function"
    },
    {
      "inputs": [
        {
          "internalType": "uint256",
          "name": "id",
          "type": "uint256"
        }
      ],
      "name": "totalSupply",
      "outputs": [
        {
          "internalType": "uint256",
          "name": "",
          "type": "uint256"
        }
      ],
      "stateMutability": "view",
      "type": "function"
    },
    {
      "inputs": [
        {
          "internalType": "address",
          "name": "newOwner",
          "type": "address"
        }
      ],
      "name": "transferOwnership",
      "outputs": [],
      "stateMutability": "nonpayable",
      "type": "function"
    },
    {
      "inputs": [
        {
          "internalType": "uint256",
          "name": "",
          "type": "uint256"
        }
      ],
      "name": "uri",
      "outputs": [
        {
          "internalType": "string",
          "name": "",
          "type": "string"
        }
      ],
      "stateMutability": "view",
      "type": "function"
    },
    {
      "inputs": [
        {
          "internalType": "address",
          "name": "",
          "type": "address"
        }
      ],
      "name": "walletClaimCount",
      "outputs": [
        {
          "internalType": "uint256",
          "name": "",
          "type": "uint256"
        }
      ],
      "stateMutability": "view",
      "type": "function"
    }
  ],
  "bytecode": "0x6080604052620186a06006553480156200001857600080fd5b5060405162003a6f38038062003a6f83398181016040528101906200003e919062000295565b8062000050816200008960201b60201c565b506200007162000065620000a560201b60201c565b620000ad60201b60201c565b62000082816200008960201b60201c565b506200044a565b8060029080519060200190620000a192919062000173565b5050565b600033905090565b6000600360009054906101000a900473ffffffffffffffffffffffffffffffffffffffff16905081600360006101000a81548173ffffffffffffffffffffffffffffffffffffffff021916908373ffffffffffffffffffffffffffffffffffffffff1602179055508173ffffffffffffffffffffffffffffffffffffffff168173ffffffffffffffffffffffffffffffffffffffff167f8be0079c531659141344cd1fd0a4f28419497f9722a3daafe3b4186f6b6457e060405160405180910390a35050565b82805462000181906200036f565b90600052602060002090601f016020900481019282620001a55760008555620001f1565b82601f10620001c057805160ff1916838001178555620001f1565b82800160010185558215620001f1579182015b82811115620001f0578251825591602001919060010190620001d3565b5b50905062000200919062000204565b5090565b5b808211156200021f57600081600090555060010162000205565b5090565b60006200023a620002348462000303565b620002da565b9050828152602081018484840111156200025357600080fd5b6200026084828562000339565b509392505050565b600082601f8301126200027a57600080fd5b81516200028c84826020860162000223565b91505092915050565b600060208284031215620002a857600080fd5b600082015167ffffffffffffffff811115620002c357600080fd5b620002d18482850162000268565b91505092915050565b6000620002e6620002f9565b9050620002f48282620003a5565b919050565b6000604051905090565b600067ffffffffffffffff8211156200032157620003206200040a565b5b6200032c8262000439565b9050602081019050919050565b60005b83811015620003595780820151818401526020810190506200033c565b8381111562000369576000848401525b50505050565b600060028204905060018216806200038857607f821691505b602082108114156200039f576200039e620003db565b5b50919050565b620003b08262000439565b810181811067ffffffffffffffff82111715620003d257620003d16200040a565b5b80604052505050565b7f4e487b7100000000000000000000000000000000000000000000000000000000600052602260045260246000fd5b7f4e487b7100000000000000000000000000000000000000000000000000000000600052604160045260246000fd5b6000601f19601f8301169050919050565b613615806200045a6000396000f3fe608060405234801561001057600080fd5b50600436106101205760003560e01c80634e1273f4116100ad578063a22cb46511610071578063a22cb46514610319578063bd85b03914610335578063e985e9c514610365578063f242432a14610395578063f2fde38b146103b157610120565b80634e1273f4146102755780634f558e79146102a5578063715018a6146102d5578063729ad39e146102df5780638da5cb5b146102fb57610120565b806318160ddd116100f457806318160ddd146101d15780632ab4d052146101ef5780632eb2c2d61461020d5780633c3284d1146102295780634352ab411461024557610120565b8062fdd58e1461012557806301ffc9a71461015557806302fe5305146101855780630e89341c146101a1575b600080fd5b61013f600480360381019061013a9190612478565b6103cd565b60405161014c9190612ca5565b60405180910390f35b61016f600480360381019061016a9190612565565b610496565b60405161017c9190612a88565b60405180910390f35b61019f600480360381019061019a91906125b7565b610578565b005b6101bb60048036038101906101b691906125f8565b61058c565b6040516101c89190612aa3565b60405180910390f35b6101d9610620565b6040516101e69190612ca5565b60405180910390f35b6101f7610626565b6040516102049190612ca5565b60405180910390f35b610227600480360381019061022291906122ee565b61062c565b005b610243600480360381019061023e9190612289565b6106cd565b005b61025f600480360381019061025a9190612289565b61086d565b60405161026c9190612ca5565b60405180910390f35b61028f600480360381019061028a91906124f9565b610885565b60405161029c9190612a2f565b60405180910390f35b6102bf60048036038101906102ba91906125f8565b610a36565b6040516102cc9190612a88565b60405180910390f35b6102dd610a4a565b005b6102f960048036038101906102f491906124b4565b610a5e565b005b610303610ae2565b6040516103109190612952565b60405180910390f35b610333600480360381019061032e919061243c565b610b0c565b005b61034f600480360381019061034a91906125f8565b610b22565b60405161035c9190612ca5565b60405180910390f35b61037f600480360381019061037a91906122b2565b610b3f565b60405161038c9190612a88565b60405180910390f35b6103af60048036038101906103aa91906123ad565b610bd3565b005b6103cb60048036038101906103c69190612289565b610c74565b005b60008073ffffffffffffffffffffffffffffffffffffffff168373ffffffffffffffffffffffffffffffffffffffff16141561043e576040517f08c379a000000000000000000000000000000000000000000000000000000000815260040161043590612b65565b60405180910390fd5b60008083815260200190815260200160002060008473ffffffffffffffffffffffffffffffffffffffff1673ffffffffffffffffffffffffffffffffffffffff16815260200190815260200160002054905092915050565b60007fd9b67a26000000000000000000000000000000000000000000000000000000007bffffffffffffffffffffffffffffffffffffffffffffffffffffffff1916827bffffffffffffffffffffffffffffffffffffffffffffffffffffffff1916148061056157507f0e89341c000000000000000000000000000000000000000000000000000000007bffffffffffffffffffffffffffffffffffffffffffffffffffffffff1916827bffffffffffffffffffffffffffffffffffffffffffffffffffffffff1916145b80610571575061057082610cf8565b5b9050919050565b610580610d62565b61058981610de0565b50565b60606002805461059b90612f45565b80601f01602080910402602001604051908101604052809291908181526020018280546105c790612f45565b80156106145780601f106105e957610100808354040283529160200191610614565b820191906000526020600020905b8154815290600101906020018083116105f757829003601f168201915b50505050509050919050565b60055481565b60065481565b610634610dfa565b73ffffffffffffffffffffffffffffffffffffffff168573ffffffffffffffffffffffffffffffffffffffff16148061067a575061067985610674610dfa565b610b3f565b5b6106b9576040517f08c379a00000000000000000000000000000000000000000000000000000000081526004016106b090612ae5565b60405180910390fd5b6106c68585858585610e02565b5050505050565b6106d5610d62565b60065460016005546106e79190612e39565b10610727576040517f08c379a000000000000000000000000000000000000000000000000000000000815260040161071e90612b25565b60405180910390fd5b6001600760008373ffffffffffffffffffffffffffffffffffffffff1673ffffffffffffffffffffffffffffffffffffffff16815260200190815260200160002054106107a9576040517f08c379a00000000000000000000000000000000000000000000000000000000081526004016107a090612b85565b60405180910390fd5b60016005546107b89190612e39565b6005819055506001600760008373ffffffffffffffffffffffffffffffffffffffff1673ffffffffffffffffffffffffffffffffffffffff1681526020019081526020016000205461080a9190612e39565b600760008373ffffffffffffffffffffffffffffffffffffffff1673ffffffffffffffffffffffffffffffffffffffff1681526020019081526020016000208190555061086a816000600160405180602001604052806000815250611170565b50565b60076020528060005260406000206000915090505481565b606081518351146108cb576040517f08c379a00000000000000000000000000000000000000000000000000000000081526004016108c290612c45565b60405180910390fd5b6000835167ffffffffffffffff81111561090e577f4e487b7100000000000000000000000000000000000000000000000000000000600052604160045260246000fd5b60405190808252806020026020018201604052801561093c5781602001602082028036833780820191505090505b50905060005b8451811015610a2b576109d5858281518110610987577f4e487b7100000000000000000000000000000000000000000000000000000000600052603260045260246000fd5b60200260200101518583815181106109c8577f4e487b7100000000000000000000000000000000000000000000000000000000600052603260045260246000fd5b60200260200101516103cd565b828281518110610a0e577f4e487b7100000000000000000000000000000000000000000000000000000000600052603260045260246000fd5b60200260200101818152505080610a2490612fa8565b9050610942565b508091505092915050565b600080610a4283610b22565b119050919050565b610a52610d62565b610a5c6000611321565b565b610a66610d62565b60005b82829050811015610add57610aca838383818110610ab0577f4e487b7100000000000000000000000000000000000000000000000000000000600052603260045260246000fd5b9050602002016020810190610ac59190612289565b6106cd565b8080610ad590612fa8565b915050610a69565b505050565b6000600360009054906101000a900473ffffffffffffffffffffffffffffffffffffffff16905090565b610b1e610b17610dfa565b83836113e7565b5050565b600060046000838152602001908152602001600020549050919050565b6000600160008473ffffffffffffffffffffffffffffffffffffffff1673ffffffffffffffffffffffffffffffffffffffff16815260200190815260200160002060008373ffffffffffffffffffffffffffffffffffffffff1673ffffffffffffffffffffffffffffffffffffffff16815260200190815260200160002060009054906101000a900460ff16905092915050565b610bdb610dfa565b73ffffffffffffffffffffffffffffffffffffffff168573ffffffffffffffffffffffffffffffffffffffff161480610c215750610c2085610c1b610dfa565b610b3f565b5b610c60576040517f08c379a0000000000000000000000000000000000000000000000000000000008152600401610c5790612ae5565b60405180910390fd5b610c6d8585858585611554565b5050505050565b610c7c610d62565b600073ffffffffffffffffffffffffffffffffffffffff168173ffffffffffffffffffffffffffffffffffffffff161415610cec576040517f08c379a0000000000000000000000000000000000000000000000000000000008152600401610ce390612b45565b60405180910390fd5b610cf581611321565b50565b60007f01ffc9a7000000000000000000000000000000000000000000000000000000007bffffffffffffffffffffffffffffffffffffffffffffffffffffffff1916827bffffffffffffffffffffffffffffffffffffffffffffffffffffffff1916149050919050565b610d6a610dfa565b73ffffffffffffffffffffffffffffffffffffffff16610d88610ae2565b73ffffffffffffffffffffffffffffffffffffffff1614610dde576040517f08c379a0000000000000000000000000000000000000000000000000000000008152600401610dd590612be5565b60405180910390fd5b565b8060029080519060200190610df6929190611f37565b5050565b600033905090565b8151835114610e46576040517f08c379a0000000000000000000000000000000000000000000000000000000008152600401610e3d90612c65565b60405180910390fd5b600073ffffffffffffffffffffffffffffffffffffffff168473ffffffffffffffffffffffffffffffffffffffff161415610eb6576040517f08c379a0000000000000000000000000000000000000000000000000000000008152600401610ead90612ba5565b60405180910390fd5b6000610ec0610dfa565b9050610ed08187878787876117f0565b60005b84518110156110cd576000858281518110610f17577f4e487b7100000000000000000000000000000000000000000000000000000000600052603260045260246000fd5b602002602001015190506000858381518110610f5c577f4e487b7100000000000000000000000000000000000000000000000000000000600052603260045260246000fd5b60200260200101519050600080600084815260200190815260200160002060008b73ffffffffffffffffffffffffffffffffffffffff1673ffffffffffffffffffffffffffffffffffffffff16815260200190815260200160002054905081811015610ffd576040517f08c379a0000000000000000000000000000000000000000000000000000000008152600401610ff490612bc5565b60405180910390fd5b81810360008085815260200190815260200160002060008c73ffffffffffffffffffffffffffffffffffffffff1673ffffffffffffffffffffffffffffffffffffffff168152602001908152602001600020819055508160008085815260200190815260200160002060008b73ffffffffffffffffffffffffffffffffffffffff1673ffffffffffffffffffffffffffffffffffffffff16815260200190815260200160002060008282546110b29190612e39565b92505081905550505050806110c690612fa8565b9050610ed3565b508473ffffffffffffffffffffffffffffffffffffffff168673ffffffffffffffffffffffffffffffffffffffff168273ffffffffffffffffffffffffffffffffffffffff167f4a39dc06d4c0dbc64b70af90fd698a233a518aa5d07e595d983b8c0526c8f7fb8787604051611144929190612a51565b60405180910390a461115a818787878787611806565b61116881878787878761180e565b505050505050565b600073ffffffffffffffffffffffffffffffffffffffff168473ffffffffffffffffffffffffffffffffffffffff1614156111e0576040517f08c379a00000000000000000000000000000000000000000000000000000000081526004016111d790612c85565b60405180910390fd5b60006111ea610dfa565b905060006111f7856119f5565b90506000611204856119f5565b9050611215836000898585896117f0565b8460008088815260200190815260200160002060008973ffffffffffffffffffffffffffffffffffffffff1673ffffffffffffffffffffffffffffffffffffffff16815260200190815260200160002060008282546112749190612e39565b925050819055508673ffffffffffffffffffffffffffffffffffffffff16600073ffffffffffffffffffffffffffffffffffffffff168473ffffffffffffffffffffffffffffffffffffffff167fc3d58168c5ae7397731d063d5bbf3d657854427343f4c083240f7aacaa2d0f6289896040516112f2929190612cc0565b60405180910390a461130983600089858589611806565b61131883600089898989611abb565b50505050505050565b6000600360009054906101000a900473ffffffffffffffffffffffffffffffffffffffff16905081600360006101000a81548173ffffffffffffffffffffffffffffffffffffffff021916908373ffffffffffffffffffffffffffffffffffffffff1602179055508173ffffffffffffffffffffffffffffffffffffffff168173ffffffffffffffffffffffffffffffffffffffff167f8be0079c531659141344cd1fd0a4f28419497f9722a3daafe3b4186f6b6457e060405160405180910390a35050565b8173ffffffffffffffffffffffffffffffffffffffff168373ffffffffffffffffffffffffffffffffffffffff161415611456576040517f08c379a000000000000000000000000000000000000000000000000000000000815260040161144d90612c25565b60405180910390fd5b80600160008573ffffffffffffffffffffffffffffffffffffffff1673ffffffffffffffffffffffffffffffffffffffff16815260200190815260200160002060008473ffffffffffffffffffffffffffffffffffffffff1673ffffffffffffffffffffffffffffffffffffffff16815260200190815260200160002060006101000a81548160ff0219169083151502179055508173ffffffffffffffffffffffffffffffffffffffff168373ffffffffffffffffffffffffffffffffffffffff167f17307eab39ab6107e8899845ad3d59bd9653f200f220920489ca2b5937696c31836040516115479190612a88565b60405180910390a3505050565b600073ffffffffffffffffffffffffffffffffffffffff168473ffffffffffffffffffffffffffffffffffffffff1614156115c4576040517f08c379a00000000000000000000000000000000000000000000000000000000081526004016115bb90612ba5565b60405180910390fd5b60006115ce610dfa565b905060006115db856119f5565b905060006115e8856119f5565b90506115f88389898585896117f0565b600080600088815260200190815260200160002060008a73ffffffffffffffffffffffffffffffffffffffff1673ffffffffffffffffffffffffffffffffffffffff1681526020019081526020016000205490508581101561168f576040517f08c379a000000000000000000000000000000000000000000000000000000000815260040161168690612bc5565b60405180910390fd5b85810360008089815260200190815260200160002060008b73ffffffffffffffffffffffffffffffffffffffff1673ffffffffffffffffffffffffffffffffffffffff168152602001908152602001600020819055508560008089815260200190815260200160002060008a73ffffffffffffffffffffffffffffffffffffffff1673ffffffffffffffffffffffffffffffffffffffff16815260200190815260200160002060008282546117449190612e39565b925050819055508773ffffffffffffffffffffffffffffffffffffffff168973ffffffffffffffffffffffffffffffffffffffff168573ffffffffffffffffffffffffffffffffffffffff167fc3d58168c5ae7397731d063d5bbf3d657854427343f4c083240f7aacaa2d0f628a8a6040516117c1929190612cc0565b60405180910390a46117d7848a8a86868a611806565b6117e5848a8a8a8a8a611abb565b505050505050505050565b6117fe868686868686611ca2565b505050505050565b505050505050565b61182d8473ffffffffffffffffffffffffffffffffffffffff16611f0c565b156119ed578373ffffffffffffffffffffffffffffffffffffffff1663bc197c8187878686866040518663ffffffff1660e01b815260040161187395949392919061296d565b602060405180830381600087803b15801561188d57600080fd5b505af19250505080156118be57506040513d601f19601f820116820180604052508101906118bb919061258e565b60015b611964576118ca61307e565b806308c379a0141561192757506118df6134ed565b806118ea5750611929565b806040517f08c379a000000000000000000000000000000000000000000000000000000000815260040161191e9190612aa3565b60405180910390fd5b505b6040517f08c379a000000000000000000000000000000000000000000000000000000000815260040161195b90612ac5565b60405180910390fd5b63bc197c8160e01b7bffffffffffffffffffffffffffffffffffffffffffffffffffffffff1916817bffffffffffffffffffffffffffffffffffffffffffffffffffffffff1916146119eb576040517f08c379a00000000000000000000000000000000000000000000000000000000081526004016119e290612b05565b60405180910390fd5b505b505050505050565b60606000600167ffffffffffffffff811115611a3a577f4e487b7100000000000000000000000000000000000000000000000000000000600052604160045260246000fd5b604051908082528060200260200182016040528015611a685781602001602082028036833780820191505090505b5090508281600081518110611aa6577f4e487b7100000000000000000000000000000000000000000000000000000000600052603260045260246000fd5b60200260200101818152505080915050919050565b611ada8473ffffffffffffffffffffffffffffffffffffffff16611f0c565b15611c9a578373ffffffffffffffffffffffffffffffffffffffff1663f23a6e6187878686866040518663ffffffff1660e01b8152600401611b209594939291906129d5565b602060405180830381600087803b158015611b3a57600080fd5b505af1925050508015611b6b57506040513d601f19601f82011682018060405250810190611b68919061258e565b60015b611c1157611b7761307e565b806308c379a01415611bd45750611b8c6134ed565b80611b975750611bd6565b806040517f08c379a0000000000000000000000000000000000000000000000000000000008152600401611bcb9190612aa3565b60405180910390fd5b505b6040517f08c379a0000000000000000000000000000000000000000000000000000000008152600401611c0890612ac5565b60405180910390fd5b63f23a6e6160e01b7bffffffffffffffffffffffffffffffffffffffffffffffffffffffff1916817bffffffffffffffffffffffffffffffffffffffffffffffffffffffff191614611c98576040517f08c379a0000000000000000000000000000000000000000000000000000000008152600401611c8f90612b05565b60405180910390fd5b505b505050505050565b611cb0868686868686611f2f565b600073ffffffffffffffffffffffffffffffffffffffff168573ffffffffffffffffffffffffffffffffffffffff161415611dae5760005b8351811015611dac57828181518110611d2a577f4e487b7100000000000000000000000000000000000000000000000000000000600052603260045260246000fd5b602002602001015160046000868481518110611d6f577f4e487b7100000000000000000000000000000000000000000000000000000000600052603260045260246000fd5b602002602001015181526020019081526020016000206000828254611d949190612e39565b9250508190555080611da590612fa8565b9050611ce8565b505b600073ffffffffffffffffffffffffffffffffffffffff168473ffffffffffffffffffffffffffffffffffffffff161415611f045760005b8351811015611f02576000848281518110611e2a577f4e487b7100000000000000000000000000000000000000000000000000000000600052603260045260246000fd5b602002602001015190506000848381518110611e6f577f4e487b7100000000000000000000000000000000000000000000000000000000600052603260045260246000fd5b6020026020010151905060006004600084815260200190815260200160002054905081811015611ed4576040517f08c379a0000000000000000000000000000000000000000000000000000000008152600401611ecb90612c05565b60405180910390fd5b818103600460008581526020019081526020016000208190555050505080611efb90612fa8565b9050611de6565b505b505050505050565b6000808273ffffffffffffffffffffffffffffffffffffffff163b119050919050565b505050505050565b828054611f4390612f45565b90600052602060002090601f016020900481019282611f655760008555611fac565b82601f10611f7e57805160ff1916838001178555611fac565b82800160010185558215611fac579182015b82811115611fab578251825591602001919060010190611f90565b5b509050611fb99190611fbd565b5090565b5b80821115611fd6576000816000905550600101611fbe565b5090565b6000611fed611fe884612d0e565b612ce9565b9050808382526020820190508285602086028201111561200c57600080fd5b60005b8581101561203c5781612022888261212e565b84526020840193506020830192505060018101905061200f565b5050509392505050565b600061205961205484612d3a565b612ce9565b9050808382526020820190508285602086028201111561207857600080fd5b60005b858110156120a8578161208e8882612274565b84526020840193506020830192505060018101905061207b565b5050509392505050565b60006120c56120c084612d66565b612ce9565b9050828152602081018484840111156120dd57600080fd5b6120e8848285612f03565b509392505050565b60006121036120fe84612d97565b612ce9565b90508281526020810184848401111561211b57600080fd5b612126848285612f03565b509392505050565b60008135905061213d81613583565b92915050565b60008083601f84011261215557600080fd5b8235905067ffffffffffffffff81111561216e57600080fd5b60208301915083602082028301111561218657600080fd5b9250929050565b600082601f83011261219e57600080fd5b81356121ae848260208601611fda565b91505092915050565b600082601f8301126121c857600080fd5b81356121d8848260208601612046565b91505092915050565b6000813590506121f08161359a565b92915050565b600081359050612205816135b1565b92915050565b60008151905061221a816135b1565b92915050565b600082601f83011261223157600080fd5b81356122418482602086016120b2565b91505092915050565b600082601f83011261225b57600080fd5b813561226b8482602086016120f0565b91505092915050565b600081359050612283816135c8565b92915050565b60006020828403121561229b57600080fd5b60006122a98482850161212e565b91505092915050565b600080604083850312156122c557600080fd5b60006122d38582860161212e565b92505060206122e48582860161212e565b9150509250929050565b600080600080600060a0868803121561230657600080fd5b60006123148882890161212e565b95505060206123258882890161212e565b945050604086013567ffffffffffffffff81111561234257600080fd5b61234e888289016121b7565b935050606086013567ffffffffffffffff81111561236b57600080fd5b612377888289016121b7565b925050608086013567ffffffffffffffff81111561239457600080fd5b6123a088828901612220565b9150509295509295909350565b600080600080600060a086880312156123c557600080fd5b60006123d38882890161212e565b95505060206123e48882890161212e565b94505060406123f588828901612274565b935050606061240688828901612274565b925050608086013567ffffffffffffffff81111561242357600080fd5b61242f88828901612220565b9150509295509295909350565b6000806040838503121561244f57600080fd5b600061245d8582860161212e565b925050602061246e858286016121e1565b9150509250929050565b6000806040838503121561248b57600080fd5b60006124998582860161212e565b92505060206124aa85828601612274565b9150509250929050565b600080602083850312156124c757600080fd5b600083013567ffffffffffffffff8111156124e157600080fd5b6124ed85828601612143565b92509250509250929050565b6000806040838503121561250c57600080fd5b600083013567ffffffffffffffff81111561252657600080fd5b6125328582860161218d565b925050602083013567ffffffffffffffff81111561254f57600080fd5b61255b858286016121b7565b9150509250929050565b60006020828403121561257757600080fd5b6000612585848285016121f6565b91505092915050565b6000602082840312156125a057600080fd5b60006125ae8482850161220b565b91505092915050565b6000602082840312156125c957600080fd5b600082013567ffffffffffffffff8111156125e357600080fd5b6125ef8482850161224a565b91505092915050565b60006020828403121561260a57600080fd5b600061261884828501612274565b91505092915050565b600061262d8383612934565b60208301905092915050565b61264281612e8f565b82525050565b600061265382612dd8565b61265d8185612e06565b935061266883612dc8565b8060005b838110156126995781516126808882612621565b975061268b83612df9565b92505060018101905061266c565b5085935050505092915050565b6126af81612ea1565b82525050565b60006126c082612de3565b6126ca8185612e17565b93506126da818560208601612f12565b6126e3816130a0565b840191505092915050565b60006126f982612dee565b6127038185612e28565b9350612713818560208601612f12565b61271c816130a0565b840191505092915050565b6000612734603483612e28565b915061273f826130be565b604082019050919050565b6000612757602f83612e28565b91506127628261310d565b604082019050919050565b600061277a602883612e28565b91506127858261315c565b604082019050919050565b600061279d601783612e28565b91506127a8826131ab565b602082019050919050565b60006127c0602683612e28565b91506127cb826131d4565b604082019050919050565b60006127e3602a83612e28565b91506127ee82613223565b604082019050919050565b6000612806601d83612e28565b915061281182613272565b602082019050919050565b6000612829602583612e28565b91506128348261329b565b604082019050919050565b600061284c602a83612e28565b9150612857826132ea565b604082019050919050565b600061286f602083612e28565b915061287a82613339565b602082019050919050565b6000612892602883612e28565b915061289d82613362565b604082019050919050565b60006128b5602983612e28565b91506128c0826133b1565b604082019050919050565b60006128d8602983612e28565b91506128e382613400565b604082019050919050565b60006128fb602883612e28565b91506129068261344f565b604082019050919050565b600061291e602183612e28565b91506129298261349e565b604082019050919050565b61293d81612ef9565b82525050565b61294c81612ef9565b82525050565b60006020820190506129676000830184612639565b92915050565b600060a0820190506129826000830188612639565b61298f6020830187612639565b81810360408301526129a18186612648565b905081810360608301526129b58185612648565b905081810360808301526129c981846126b5565b90509695505050505050565b600060a0820190506129ea6000830188612639565b6129f76020830187612639565b612a046040830186612943565b612a116060830185612943565b8181036080830152612a2381846126b5565b90509695505050505050565b60006020820190508181036000830152612a498184612648565b905092915050565b60006040820190508181036000830152612a6b8185612648565b90508181036020830152612a7f8184612648565b90509392505050565b6000602082019050612a9d60008301846126a6565b92915050565b60006020820190508181036000830152612abd81846126ee565b905092915050565b60006020820190508181036000830152612ade81612727565b9050919050565b60006020820190508181036000830152612afe8161274a565b9050919050565b60006020820190508181036000830152612b1e8161276d565b9050919050565b60006020820190508181036000830152612b3e81612790565b9050919050565b60006020820190508181036000830152612b5e816127b3565b9050919050565b60006020820190508181036000830152612b7e816127d6565b9050919050565b60006020820190508181036000830152612b9e816127f9565b9050919050565b60006020820190508181036000830152612bbe8161281c565b9050919050565b60006020820190508181036000830152612bde8161283f565b9050919050565b60006020820190508181036000830152612bfe81612862565b9050919050565b60006020820190508181036000830152612c1e81612885565b9050919050565b60006020820190508181036000830152612c3e816128a8565b9050919050565b60006020820190508181036000830152612c5e816128cb565b9050919050565b60006020820190508181036000830152612c7e816128ee565b9050919050565b60006020820190508181036000830152612c9e81612911565b9050919050565b6000602082019050612cba6000830184612943565b92915050565b6000604082019050612cd56000830185612943565b612ce26020830184612943565b9392505050565b6000612cf3612d04565b9050612cff8282612f77565b919050565b6000604051905090565b600067ffffffffffffffff821115612d2957612d2861304f565b5b602082029050602081019050919050565b600067ffffffffffffffff821115612d5557612d5461304f565b5b602082029050602081019050919050565b600067ffffffffffffffff821115612d8157612d8061304f565b5b612d8a826130a0565b9050602081019050919050565b600067ffffffffffffffff821115612db257612db161304f565b5b612dbb826130a0565b9050602081019050919050565b6000819050602082019050919050565b600081519050919050565b600081519050919050565b600081519050919050565b6000602082019050919050565b600082825260208201905092915050565b600082825260208201905092915050565b600082825260208201905092915050565b6000612e4482612ef9565b9150612e4f83612ef9565b9250827fffffffffffffffffffffffffffffffffffffffffffffffffffffffffffffffff03821115612e8457612e83612ff1565b5b828201905092915050565b6000612e9a82612ed9565b9050919050565b60008115159050919050565b60007fffffffff0000000000000000000000000000000000000000000000000000000082169050919050565b600073ffffffffffffffffffffffffffffffffffffffff82169050919050565b6000819050919050565b82818337600083830152505050565b60005b83811015612f30578082015181840152602081019050612f15565b83811115612f3f576000848401525b50505050565b60006002820490506001821680612f5d57607f821691505b60208210811415612f7157612f70613020565b5b50919050565b612f80826130a0565b810181811067ffffffffffffffff82111715612f9f57612f9e61304f565b5b80604052505050565b6000612fb382612ef9565b91507fffffffffffffffffffffffffffffffffffffffffffffffffffffffffffffffff821415612fe657612fe5612ff1565b5b600182019050919050565b7f4e487b7100000000000000000000000000000000000000000000000000000000600052601160045260246000fd5b7f4e487b7100000000000000000000000000000000000000000000000000000000600052602260045260246000fd5b7f4e487b7100000000000000000000000000000000000000000000000000000000600052604160045260246000fd5b600060033d111561309d5760046000803e61309a6000516130b1565b90505b90565b6000601f19601f8301169050919050565b60008160e01c9050919050565b7f455243313135353a207472616e7366657220746f206e6f6e204552433131353560008201527f526563656976657220696d706c656d656e746572000000000000000000000000602082015250565b7f455243313135353a2063616c6c6572206973206e6f7420746f6b656e206f776e60008201527f6572206e6f7220617070726f7665640000000000000000000000000000000000602082015250565b7f455243313135353a204552433131353552656365697665722072656a6563746560008201527f6420746f6b656e73000000000000000000000000000000000000000000000000602082015250565b7f657863656564206d6178206d696e7420737570706c792e000000000000000000600082015250565b7f4f776e61626c653a206e6577206f776e657220697320746865207a65726f206160008201527f6464726573730000000000000000000000000000000000000000000000000000602082015250565b7f455243313135353a2061646472657373207a65726f206973206e6f742061207660008201527f616c6964206f776e657200000000000000000000000000000000000000000000602082015250565b7f65786365656420636c61696d206c696d697420666f722077616c6c6574000000600082015250565b7f455243313135353a207472616e7366657220746f20746865207a65726f20616460008201527f6472657373000000000000000000000000000000000000000000000000000000602082015250565b7f455243313135353a20696e73756666696369656e742062616c616e636520666f60008201527f72207472616e7366657200000000000000000000000000000000000000000000602082015250565b7f4f776e61626c653a2063616c6c6572206973206e6f7420746865206f776e6572600082015250565b7f455243313135353a206275726e20616d6f756e74206578636565647320746f7460008201527f616c537570706c79000000000000000000000000000000000000000000000000602082015250565b7f455243313135353a2073657474696e6720617070726f76616c2073746174757360008201527f20666f722073656c660000000000000000000000000000000000000000000000602082015250565b7f455243313135353a206163636f756e747320616e6420696473206c656e67746860008201527f206d69736d617463680000000000000000000000000000000000000000000000602082015250565b7f455243313135353a2069647320616e6420616d6f756e7473206c656e6774682060008201527f6d69736d61746368000000000000000000000000000000000000000000000000602082015250565b7f455243313135353a206d696e7420746f20746865207a65726f2061646472657360008201527f7300000000000000000000000000000000000000000000000000000000000000602082015250565b600060443d10156134fd57613580565b613505612d04565b60043d036004823e80513d602482011167ffffffffffffffff8211171561352d575050613580565b808201805167ffffffffffffffff81111561354b5750505050613580565b80602083010160043d038501811115613568575050505050613580565b61357782602001850186612f77565b82955050505050505b90565b61358c81612e8f565b811461359757600080fd5b50565b6135a381612ea1565b81146135ae57600080fd5b50565b6135ba81612ead565b81146135c557600080fd5b50565b6135d181612ef9565b81146135dc57600080fd5b5056fea2646970667358221220c870ec39e24e60d82f4a75501c0a2b929bb4cb5bb2505d311fff4532d9927b1a64736f6c63430008040033",
  "linkReferences": {},
  "deployedLinkReferences": {}
}